:0400000000001328C1
:10000800803120007F08F00022001808203A98006C
:100018003230200095020B117008FF0009001428E7
:10002800FC015C308400003085001130B327A0301B
:100038008400003085003230B32720009F2F200035
:10004800E4017C302F27003A031D08006C302F276D
:10005800003A031D08007C08F039031D0800200041
:100068006C08F039031D08006C08A3000330A335A1
:10007800FF3E031D3B2823357C04A4002408FC0014
:100088007C08A3002308E407210040087C06031D20
:1000980008007C302F27003A031D08006C302F27FA
:1000A800003A031D08007C08F039031D08002000F1
:1000B8006C08F039031D08006C08A3000330A33551
:1000C800FF3E031D632823357C04A4002408C500D3
:1000D8004508A3002308E4072C2B7C302F27003A7F
:1000E800031D08006C302F27003A031D08007C0808
:1000F800F039031D080020006C08F039031D0800C2
:100108006C08A3000330A335FF3E031D8728233561
:100118007C04A4002408FC007C08A3002308E4074E
:100128006408031D08007C302F27003A031D0800CF
:100138007C08113A031D0800AB2702304D27200028
:1001480069084D27B92708007C302F27003A031D7E
:1001580008006C302F27003A031D08007C08F0398E
:10016800031D080020006C08F039031D08006C0806
:10017800A3000330A335FF3E031DBE2823357C04AE
:10018800A4002408C6004608A3002308E4077C301E
:100198002F27003A031D08006C302F27003A031D53
:1001A80008007C08F039031D080020006C08F039AD
:1001B800031D08006C08A3000330A335FF3E031D90
:1001C800E12823357C04A4002408C7004708A300BD
:1001D8002308E4077C302F27003A031D08006C3001
:1001E8002F27003A031D08007C08F039031D08007A
:1001F80020006C08F039031D08006C08A3000330C8
:10020800A335FF3E031D042923357C04A4002408DC
:10021800FC007C08A3002308E4076408031D080009
:100228007C302F27003A031D08007C08113A031D73
:100238000800200046086906031D0800AB270030A7
:100248004D27B92720004708A300A401230821004F
:10025800C000200024082100C100F030F100073060
:10026800F200C0302000A3002308F3000930A400E6
:100278002408F400ED2508007C302F27003A031DE0
:1002880008006C302F27003A031D08007C08F0395D
:10029800031D080020006C08F039031D08006C08D5
:1002A800A3000330A335FF3E031D562923357C04E4
:1002B800A4002408CC004C08A3002308E4074C0839
:1002C800A3002308CA007C302F27003A031D08002A
:1002D8006C302F27003A031D08007C08F039031DF5
:1002E800080020006C08F039031D08006C08A30002
:1002F8000330A335FF3E031D7D2923357C04A4006C
:100308002408CC004C08A3002308E4074C08A300E9
:100318002308CB007C302F27003A031D08006C30DF
:100328002F27003A031D08007C08F039031D080038
:1003380020006C08F039031D08006C08A300033086
:10034800A335FF3E031DA42923357C04A4002408FB
:10035800FC007C08A3002308E4076408031D0800C8
:100368007C302F27003A031D08007C08113A031D32
:10037800080020004B08F201F2074A08F101F107D2
:100388002530A3002308F3001030A4002408F4004B
:10039800C626AB2705304D2725302000A3002308AB
:1003A800C800C901203049020318EC294808860012
:1003B800870101084D2701302000A3002308C80742
:1003C8000130A3002308C90720304902031CDA2999
:1003D800B92708007C302F27003A031D08006C302D
:1003E8002F27003A031D08007C08F039031D080078
:1003F80020006C08F039031D08006C08A3000330C6
:10040800A335FF3E031D042A23357C04A4002408D9
:10041800CC004C08A3002308E4074C08A3002308D9
:10042800CA007C302F27003A031D08006C302F27A4
:10043800003A031D08007C08F039031D080020005D
:100448006C08F039031D08006C08A3000330A335BD
:10045800FF3E031D2B2A23357C04A4002408CC006E
:100468004C08A3002308E4074C08A3002308CB008A
:100478002530A3002308C800C90120304902031809
:100488007B2A7C302F27003A031D08006C302F2769
:10049800003A031D08007C08F039031D08002000FD
:1004A8006C08F039031D08006C08A3000330A3355D
:1004B800FF3E031D5B2A23357C04A4002408CC00DE
:1004C8004C08A3002308E4074C08A300480886004A
:1004D8008701230881000130A3002308C8070130E1
:1004E800A3002308C90720304902031C452A7C3091
:1004F8002F27003A031D08006C302F27003A031DF0
:1005080008007C08F039031D080020006C08F03949
:10051800031D08006C08A3000330A335FF3E031D2C
:10052800912A23357C04A4002408FC007C08A3003D
:100538002308E4076408031D08007C302F27003ACD
:10054800031D08007C08113A031D080020004B0811
:10055800F201F2074A08F101F1072530A300230848
:10056800F3001030A4002408F400ED25D92AF03057
:10057800F1000730F200C0302000A3002308F30088
:100588000930A4002408F400C626E72AE030F10068
:100598000730F200A0302000A3002308F300103039
:1005A800A4002408F400C626E72A20004B08073ACE
:1005B8000319DF2AE72A4A08E03A0319CA2A103A37
:1005C8000319BB2AE72AAB2700304D27B9270800B3
:1005D8007C302F27003A031D08006C302F27003A83
:1005E800031D08007C08F039031D080020006C0872
:1005F800F039031D08006C08A3000330A335FF3E43
:10060800031D022B23357C04A4002408FC007C086D
:10061800A3002308E4076408031D08007C302F2783
:10062800003A031D08007C08113A031D0800063033
:100638002000A3002308F100E830F200FD30F300A9
:10064800F4018C30EB26AB2700304D27B927080082
:1006580020004508013A03197128023A0319A8280D
:10066800073A03194029023A0319EE29013A0319F6
:10067800EC2A3F2B080008007E2772082000A301FF
:10068800A3077108A201A207230821004D02031D38
:10069800512B2000220821004C020318542B0E274E
:1006A8002000230821004B02031D5E2B2000220896
:1006B80021004A020318BF2B4D0820002302031D06
:1006C800692B21004C08200022020318BF2B69085F
:1006D800031D732B1508A0002008E9006B2B2100CF
:1006E8004F0820006302031D7D2B21004E082000C7
:1006F80062020318842B0130E2070030E33D080052
:100708000230C03E86008701160001040319972BAA
:10071800610821004302031D952B20006008210079
:100728004202031CBD2B200061086004031DB42B8A
:10073800C52710302000A0002008F100B830F200D2
:100748000B30F3000230C03E86008701160001041A
:10075800003003190130A1002108F4006C30EB26A9
:1007680021004008342601302000E0070030E13D38
:1007780008008C16080021008C1643084204031D4B
:10078800CB2B2000610860040319CB2BBF27200066
:10079800E201E301E001E10108002000D40054086F
:1007A8009E24E030F1000730F200A0302000D20093
:1007B8005208F3001030D3005308F400ED2501303F
:1007C8002100C4020030C53BF030F1000730F200D0
:1007D800C0302000D2005208F3000930D30053087B
:1007E800F400ED2513302000D2005208F1006030EB
:1007F800F200EA30F300F4014630EB262100450808
:100808004404031D0A2CCA27F224080021004908C1
:100818002000D601D607210048082000D501D507B9
:1008280056085504031908000130D5020030D63B9C
:10083800CA272000D7013230570203182E2C6E2603
:10084800902701302000D2005208D70732305702D3
:10085800031C232C003056021E30031955020318BE
:10086800372C21008C162000D8013230580203188A
:10087800142C6E26902701302000D2005208D80789
:10088800392C00346234F0340034FA340034003443
:100898000034003400340034003400346F347734CA
:1008A8007A34593400340034CC345E347A345934D0
:1008B800CC345E346B346A34003400346F347734AB
:1008C80070349F340034003470349F34EA34EE348A
:1008D800A0340F34DB341134D534143400341934D3
:1008E80040341F34AA34293480343E3400347D34F3
:1008F800E3348A3440349C349234B2345534D0349E
:100908000034FA3400340034003400340034003445
:10091800CC345E34B8344F3467342F34B9343B3474
:1009280034343534DC3427346F34773470349F34BE
:10093800EA34EE34F50075087F39F100F2017108E8
:10094800F6007208F700F801103078020318080062
:100958007835A03E86008701403FF100413FF20014
:100968007F307105F30000307205F40074087304D9
:10097800031DC82C7835A03E8600870176088104BF
:1009880041317708810408007835A03E8600870148
:10099800403FF100413FF20080307105F3003F30E5
:1009A8007205F40074087304031DED2C7708F20037
:1009B8007608F1000730F135F20D890BDF2C783518
:1009C800A03E8600870171088104413172088104C4
:1009D80008000130F1007108F807A82C2000D001A8
:1009E800D1010430C03E8600870116000104031DB2
:1009F80008006E262000911E0D2D23001908AA3A22
:100A08002000CD004D08CF004F08103A031D0D2DD2
:100A1800232001302000D0070030D13D902720004E
:100A2800510821005102031D1D2D200050082100EE
:100A380050020318322D2000D001D10121008C165C
:100A48004008342603302000CD004D08F100103056
:100A5800F2002730F300F4019830EB26210050080B
:100A6800CE3E2000CD00FF302100513D2000CE00B9
:100A780051084E06031D422D50084D06031DF52C46
:100A8800CA27F52CF030F1000730F200C030F7002B
:100A98007708F3000930F8007808F400C6263F30DC
:100AA80021004106031D5A2DFF304006031D8C2DE1
:100AB8000130C4000030C5008030C0000030C100E3
:100AC800C201C301F430CA000130CB00A030CE000F
:100AD8000F30CF00E830CC000330CD00F030F1000B
:100AE8000730F200C030F7007708F3000930F8004B
:100AF8007808F400ED25E030F1000730F200A0306E
:100B0800F7007708F3001030F8007808F400ED25B6
:100B1800E030F1000730F200A030F7007708F3006A
:100B28001030F8007808F400C62608002000911E4E
:100B3800080023001908AA3A2000D9005908DB0048
:100B48005B08103A031DAA2D2320080081302000DD
:100B58005B02031C08005B08D900DA012100410888
:100B680020005A06031DBC2D21004008200059060C
:100B780003190800803021004006410403190800C9
:100B880020005B086B0603199118EA019A0191107D
:100B98005B08D9005908EB000130D9005908EA0769
:100BA8006A08D900DA015A0821004702031DE02D1E
:100BB80020005908210046020318080023001D12CE
:100BC80020005B08D1232000EB01230019081D1623
:100BD80008008B1372082300920192077108910193
:100BE800910715131516151555309600AA3096005D
:100BF8009514000000002300151172089201920755
:100C08007108910191071513151215159516F6011E
:100C1800F60A76087402031C312E730886008701D1
:100C2800403F9300413F94000230F5007508F307F8
:100C3800760874060319951255309600AA30960066
:100C48009514000000000130F50075082300910795
:100C58000130F5007508F6070D2E15118B170800E1
:100C6800F900AA30F8007808F906902723001D1229
:100C7800FA01FB0100307B02643003197A02031881
:100C88005A2E20008C185A2E902763307A067B043F
:100C9800031D4F2E0E270130FA070030FB3D0030B0
:100CA8007B02643003197A02031C452E2200981730
:100CB800200095010B158B16790823009A009E1CBD
:100CC800632E8B122200981323001D1619089027F3
:100CD800902708002000111C080066086702031C02
:100CE8007C2E680803197A2EE7017C2EBF2708009E
:100CF8002000650884008430850067358407031860
:100D0800850A003FF100013FF200672720005E09D5
:100D1800F5005F09F600F50A0319F60A750896004A
:100D2800760897000130F5007508E70711100800EC
:100D38007A302100990023008C0121000C110C103D
:100D480023000C163030F300730821009E0467302E
:100D580023009B001E129D171F169E161D168B172B
:100D68002100951230302000980403309C0478301C
:100D78009C041C1521001D0883390C389D001D1486
:100D88009027080023001513720892019207710832
:100D980091019107F60174087602031808001514EA
:100DA8000000000073088600870123001308C03F75
:100DB8001408C13F0230F5007508F30701309107A8
:100DC8000030923D0130F5007508F607CF2EF70088
:100DD8007708F50075082000E5007108F50075082A
:100DE800E600E7017408F5007508E8007308DF01FC
:100DF800DF077208DE01DE075E09F5005F09F6000D
:100E0800F50A0319F60A7508960076089700111472
:100E180018140800CA278530F1001E30F200672731
:100E2800F601C83076020318222F90270130F5000A
:100E38007508F607C8307602031C192F21008C1696
:100E4800F701C830770203180E2F90270130F500FC
:100E58007508F707252FF2002000DC01DD01911A43
:100E6800422F0130DC070030DD3D75305D02303047
:100E780003195C02031C332F0130080023001908F2
:100E8800AA3AF100720886008701710881000030D3
:100E980008002000A20022080F39A0002008FC004A
:100EA8002208A0000430A036890B572F2008A10083
:100EB8002108EC007C08342620006C083426200029
:100EC8002208E40208003B00BB173B177208B60172
:100ED800B6077108B501B5077208F4007108F30088
:100EE800F436F30C7308B3007408B400B101B2010E
:100EF800BF17080021009D149D18802F1C08F400BE
:100F08001B08F3000630F436F30C890B872F73089F
:100F1800F1007408F2000800F101F20101307202D8
:100F28001D30031971020318080000000130F10791
:100F38000030F23D922F9C264625210045084404A6
:100F4800031DA72FF2249A2540236E26A72F1030C1
:100F580034262000E401210040084D2708006400E1
:100F680080010131890BB42F0034200064084D271B
:100F78001130342608003B003B13200018101110D4
:100F8800080021008C1220008C16080021008C1209
:060F980020008C1208008D
:020000040001F9
:04000E00E4FFFFDE2E
:00000001FF
