:0400000000001328C1
:10000800803120007F08F00022001808203A98006C
:100018003230200095020B117008FF0009001428E7
:10002800FC015C308400003085001130BF27A0300F
:100038008400003085003230BF272000AB2F20001D
:10004800E4017C303B27003A031D08006C303B2755
:10005800003A031D08007C08F039031D0800200041
:100068006C08F039031D08006C08A3000330A335A1
:10007800FF3E031D3B2823357C04A4002408FC0014
:100088007C08A3002308E407210040087C06031D20
:1000980008007C303B27003A031D08006C303B27E2
:1000A800003A031D08007C08F039031D08002000F1
:1000B8006C08F039031D08006C08A3000330A33551
:1000C800FF3E031D632823357C04A4002408C500D3
:1000D8004508A3002308E4072C2B7C303B27003A73
:1000E800031D08006C303B27003A031D08007C08FC
:1000F800F039031D080020006C08F039031D0800C2
:100108006C08A3000330A335FF3E031D8728233561
:100118007C04A4002408FC007C08A3002308E4074E
:100128006408031D08007C303B27003A031D0800C3
:100138007C08113A031D0800B72702305927200010
:1001480069085927C52708007C303B27003A031D5A
:1001580008006C303B27003A031D08007C08F03982
:10016800031D080020006C08F039031D08006C0806
:10017800A3000330A335FF3E031DBE2823357C04AE
:10018800A4002408C6004608A3002308E4077C301E
:100198003B27003A031D08006C303B27003A031D3B
:1001A80008007C08F039031D080020006C08F039AD
:1001B800031D08006C08A3000330A335FF3E031D90
:1001C800E12823357C04A4002408C7004708A300BD
:1001D8002308E4077C303B27003A031D08006C30F5
:1001E8003B27003A031D08007C08F039031D08006E
:1001F80020006C08F039031D08006C08A3000330C8
:10020800A335FF3E031D042923357C04A4002408DC
:10021800FC007C08A3002308E4076408031D080009
:100228007C303B27003A031D08007C08113A031D67
:100238000800200046086906031D0800B72700309B
:100248005927C52720004708A300A4012308210037
:10025800C000200024082100C100F030F100073060
:10026800F200C0302000A3002308F3000930A400E6
:100278002408F400F92508007C303B27003A031DC8
:1002880008006C303B27003A031D08007C08F03951
:10029800031D080020006C08F039031D08006C08D5
:1002A800A3000330A335FF3E031D562923357C04E4
:1002B800A4002408CC004C08A3002308E4074C0839
:1002C800A3002308CA007C303B27003A031D08001E
:1002D8006C303B27003A031D08007C08F039031DE9
:1002E800080020006C08F039031D08006C08A30002
:1002F8000330A335FF3E031D7D2923357C04A4006C
:100308002408CC004C08A3002308E4074C08A300E9
:100318002308CB007C303B27003A031D08006C30D3
:100328003B27003A031D08007C08F039031D08002C
:1003380020006C08F039031D08006C08A300033086
:10034800A335FF3E031DA42923357C04A4002408FB
:10035800FC007C08A3002308E4076408031D0800C8
:100368007C303B27003A031D08007C08113A031D26
:10037800080020004B08F201F2074A08F101F107D2
:100388002530A3002308F3001030A4002408F4004B
:10039800D226B7270530592725302000A300230887
:1003A800C800C901203049020318EC294808860012
:1003B80087010108592701302000A3002308C80736
:1003C8000130A3002308C90720304902031CDA2999
:1003D800C52708007C303B27003A031D08006C3015
:1003E8003B27003A031D08007C08F039031D08006C
:1003F80020006C08F039031D08006C08A3000330C6
:10040800A335FF3E031D042A23357C04A4002408D9
:10041800CC004C08A3002308E4074C08A3002308D9
:10042800CA007C303B27003A031D08006C303B278C
:10043800003A031D08007C08F039031D080020005D
:100448006C08F039031D08006C08A3000330A335BD
:10045800FF3E031D2B2A23357C04A4002408CC006E
:100468004C08A3002308E4074C08A3002308CB008A
:100478002530A3002308C800C90120304902031809
:100488007B2A7C303B27003A031D08006C303B2751
:10049800003A031D08007C08F039031D08002000FD
:1004A8006C08F039031D08006C08A3000330A3355D
:1004B800FF3E031D5B2A23357C04A4002408CC00DE
:1004C8004C08A3002308E4074C08A300480886004A
:1004D8008701230881000130A3002308C8070130E1
:1004E800A3002308C90720304902031C452A7C3091
:1004F8003B27003A031D08006C303B27003A031DD8
:1005080008007C08F039031D080020006C08F03949
:10051800031D08006C08A3000330A335FF3E031D2C
:10052800912A23357C04A4002408FC007C08A3003D
:100538002308E4076408031D08007C303B27003AC1
:10054800031D08007C08113A031D080020004B0811
:10055800F201F2074A08F101F1072530A300230848
:10056800F3001030A4002408F400F925D92AF0304B
:10057800F1000730F200C0302000A3002308F30088
:100588000930A4002408F400D226E72AE030F1005C
:100598000730F200A0302000A3002308F300103039
:1005A800A4002408F400D226E72A20004B08073AC2
:1005B8000319DF2AE72A4A08E03A0319CA2A103A37
:1005C8000319BB2AE72AB72700305927C52708008F
:1005D8007C303B27003A031D08006C303B27003A6B
:1005E800031D08007C08F039031D080020006C0872
:1005F800F039031D08006C08A3000330A335FF3E43
:10060800031D022B23357C04A4002408FC007C086D
:10061800A3002308E4076408031D08007C303B2777
:10062800003A031D08007C08113A031D0800063033
:100638002000A3002308F100E830F200FD30F300A9
:10064800F401EC30F726B72700305927C5270800F2
:1006580020004508013A03197128023A0319A8280D
:10066800073A03194029023A0319EE29013A0319F6
:10067800EC2A3F2B080008008A2772082000A301F3
:10068800A3077108A201A207230821004D02031D38
:10069800512B2000220821004C020318542B1A2742
:1006A8002000230821004B02031D5E2B2000220896
:1006B80021004A020318BF2B4D0820002302031D06
:1006C800692B21004C08200022020318BF2B69085F
:1006D800031D732B1508A0002008E9006B2B2100CF
:1006E8004F0820006302031D7D2B21004E082000C7
:1006F80062020318842B0130E2070030E33D080052
:100708000230C03E86008701160001040319972BAA
:10071800610821004302031D952B20006008210079
:100728004202031CBD2B200061086004031DB42B8A
:10073800D12710302000A0002008F100B830F200C6
:100748000B30F3000230C03E86008701160001041A
:10075800003003190130A1002108F400CC30F7263D
:1007680021004008402601302000E0070030E13D2C
:1007780008008C16080021008C1643084204031D4B
:10078800CB2B2000610860040319CB2BCB2720005A
:10079800E201E301E001E10108002000D40054086F
:1007A800FE24E030F1000730F200A0302000D20033
:1007B8005208F3001030D3005308F400F925013033
:1007C8002100C4020030C53BF030F1000730F200D0
:1007D800C0302000D2005208F3000930D30053087B
:1007E800F400F92513302000D2005208F1006030DF
:1007F800F200EA30F300F401A630F726210045089C
:100808004404031D0A2CD627522508002100490854
:100818002000D601D607210048082000D501D507B9
:1008280056085504031908000130D5020030D63B9C
:10083800D6272000D7013230570203182E2C7A26EB
:100848009C2701302000D2005208D70732305702C7
:10085800031C232C003056021E30031955020318BE
:10086800372C21008C162000D8013230580203188A
:10087800142C7A269C2701302000D2005208D80771
:10088800392CF030F1000730F200C030F70077085B
:10089800F3000930F8007808F400D2263F30210030
:1008A8004106031D592CFF304006031D972C80304C
:1008B800C0000030C100C201C3010130C4000030D3
:1008C800C5000230C6000030C7006430C8000030E0
:1008D800C900F430CA000130CB00E830CC00033046
:1008E800CD00A030CE000F30CF00B830D0000B3094
:1008F800D100F030F1000730F200C030F70077087F
:10090800F3000930F8007808F400F925E030F10028
:100918000730F200A030F7007708F3001030F80035
:100928007808F400F925E030F1000730F200A03033
:10093800F7007708F3001030F8007808F400D226A2
:10094800080000346234F0340034FA3400340034DF
:100958000034003400340034003400346F34773409
:100968007A34593400340034CC345E347A3459340F
:10097800CC345E346B346A34003400346F347734EA
:1009880070349F340034003470349F34EA34EE34C9
:10099800A0340F34DB341134D53414340034193412
:1009A80040341F34AA34293480343E3400347D3432
:1009B800E3348A3440349C349234B2345534D034DD
:1009C8000034FA3400340034003400340034003485
:1009D800CC345E34B8344F3467342F34B9343B34B4
:1009E80034343534DC3427346F34773470349F34FE
:1009F800EA34EE34F50075087F39F100F201710828
:100A0800F6007208F700F8011030780203180800A1
:100A18007835A03E86008701403FF100413FF20053
:100A28007F307105F30000307205F4007408730418
:100A3800031D282D7835A03E86008701760881049D
:100A480041317708810408007835A03E8600870187
:100A5800403FF100413FF20080307105F3003F3024
:100A68007205F40074087304031D4D2D7708F20015
:100A78007608F1000730F135F20D890B3F2D7835F6
:100A8800A03E860087017108810441317208810403
:100A980008000130F1007108F807082D2000D00186
:100AA800D1010430C03E8600870116000104031DF1
:100AB80008007A262000911E6D2D23001908AA3AF5
:100AC8002000CD004D08CF004F08103A031D6D2DB2
:100AD800232001302000D0070030D13D9C27200082
:100AE800510821005102031D7D2D200050082100CE
:100AF80050020318922D2000D001D10121008C163C
:100B08004008402603302000CD004D08F100103089
:100B1800F2002730F300F401F830F72621005008DE
:100B2800CE3E2000CD00FF302100513D2000CE00F8
:100B380051084E06031DA22D50084D06031D552DC4
:100B4800D627552D2000911E080023001908AA3A1F
:100B58002000D9005908DB005B08103A031DB62DA8
:100B680023200800813020005B02031C08005B087A
:100B7800D900DA012100410820005A06031DC82DBA
:100B88002100400820005906031908008030210080
:100B9800400641040319080020005B086B0603198E
:100BA8009118EA019A0191105B08D9005908EB00E5
:100BB8000130D9005908EA076A08D900DA015A0849
:100BC80021004702031DEC2D200059082100460290
:100BD8000318080023001D1220005B08D123200001
:100BE800EB01230019081D1608008B137208230057
:100BF80092019207710891019107151315161515A1
:100C080055309600AA309600951400000000230085
:100C18001511720892019207710891019107151335
:100C2800151215159516F601F60A76087402031CB6
:100C38003D2E730886008701403F9300413F940092
:100C48000230F5007508F307760874060319951243
:100C580055309600AA309600951400000000013027
:100C6800F5007508230091070130F5007508F607AF
:100C7800192E15118B170800F900AA30F80078080A
:100C8800F9069C2723001D12FA01FB0100307B02A4
:100C9800643003197A020318662E20008C18662E19
:100CA8009C2763307A067B04031D5B2E1A270130CC
:100CB800FA070030FB3D00307B02643003197A02EA
:100CC800031C512E22009817200095010B158B1636
:100CD800790823009A009E1C6F2E8B12220098130D
:100CE80023001D1619089C279C2708002000111CAA
:100CF800080066086702031C882E68080319862EF8
:100D0800E701882ECB27080020006508840084307E
:100D18008500673584070318850A003FF100013F05
:100D2800F200732720005E09F5005F09F600F50A56
:100D38000319F60A75089600760897000130F50041
:100D48007508E707111008007A3021009900230080
:100D58008C0121000C110C1023000C163030F3000C
:100D6800730821009E04673023009B001E129D1704
:100D78001F169E161D168B17210095123030200065
:100D8800980403309C0478309C041C1521001D082D
:100D980083390C389D001D149C2708002300151367
:100DA800720892019207710891019107F60174087F
:100DB8007602031808001514000000007308860066
:100DC800870123001308C03F1408C13F0230F50013
:100DD8007508F307013091070030923D0130F500A6
:100DE8007508F607DB2EF7007708F5007508200070
:100DF800E5007108F5007508E600E7017408F500DC
:100E08007508E8007308DF01DF077208DE01DE07F6
:100E18005E09F5005F09F600F50A0319F60A750878
:100E2800960076089700111418140800D627853004
:100E3800F1001E30F2007327F601C830760203185D
:100E48002E2F9C270130F5007508F607C83076026A
:100E5800031C252F21008C16F701C83077020318D0
:100E68001A2F9C270130F5007508F707312FF2007B
:100E78002000DC01DD01911A4E2F0130DC07003023
:100E8800DD3D75305D02303003195C02031C3F2FD5
:100E98000130080023001908AA3AF10072088600F8
:100EA800870171088100003008002000A200220894
:100EB8000F39A0002008FC002208A0000430A0364A
:100EC800890B632F2008A1002108EC007C0840262C
:100ED80020006C08402620002208E40208003B009D
:100EE800BB173B177208B601B6077108B501B507FD
:100EF8007208F4007108F300F436F30C7308B300B9
:100F08007408B400B101B201BF17080021009D1494
:100F18009D188C2F1C08F4001B08F3000630F436CB
:100F2800F30C890B932F7308F1007408F200080082
:100F3800F101F201013072021D3003197102031828
:100F4800080000000130F1070030F23D9E2FA8266E
:100F58004524210045084404031DB32F5225A62526
:100F680040237A26B32F103040262000E4012100C8
:100F7800400859270800640080010131890BC02FFF
:100F880000342000640859271130402608003B002F
:100F98003B13200018101110080021008C122000AB
:0E0FA8008C16080021008C1220008C1208000C
:020000040001F9
:04000E00E4FFFFDE2E
:00000001FF
