:0400000000001728BD
:100008007E14803120007F08F0000B1D1328220089
:100018001808203A98003230200095020B11700819
:10002800FF007E1009001828FC01563084000030BB
:1000380085001230C625A03084000030850032309B
:10004800C6257E1020009D2D2000E00166304C253D
:10005800003A031D080067304C25003A031D0800CC
:1000680020006608F039031D08006708F039031DF1
:1000780008006708F9000330F935FF3E031D4028E2
:1000880079356604FA007A08E6006608F900790806
:10009800E0072100400820006606031D08006630BE
:1000A8004C25003A031D080067304C25003A031D13
:1000B800080020006608F039031D08006708F039B9
:1000C800031D08006708F9000330F935FF3E031DDA
:1000D800692879356604FA007A08C0004008F900F2
:1000E8007908E0072F2B66304C25003A031D0800DD
:1000F80067304C25003A031D080020006608F039D7
:10010800031D08006708F039031D08006708F90097
:100118000330F935FF3E031D8D2879356604FA0052
:100128007A08E6006608F9007908E0076008031D08
:10013800080066304C25003A031D080020006608B8
:10014800113A031D0800A92502302A25200063085A
:100158002A25B525080066304C25003A031D0800FD
:1001680067304C25003A031D080020006608F03966
:10017800031D08006708F039031D08006708F90027
:100188000330F935FF3E031DC52879356604FA00AA
:100198007A08C1004108F9007908E00766304C2563
:1001A800003A031D080067304C25003A031D08007B
:1001B80020006608F039031D08006708F039031DA0
:1001C80008006708F9000330F935FF3E031DE828E9
:1001D80079356604FA007A08C2004208F9007908FD
:1001E800E00766304C25003A031D080067304C25AF
:1001F800003A031D080020006608F039031D0800B6
:100208006708F039031D08006708F9000330F9355D
:10021800FF3E031D0B2979356604FA007A08E600CB
:100228006608F9007908E0076008031D08006630D1
:100238004C25003A031D080020006608113A031DEA
:10024800080041086306031D0800A92500302A2577
:10025800B5250030200042042100C0000230C10052
:10026800D030F1000730F200C030F9007908F3000F
:100278000930FA007A08F400FF26080066304C2599
:10028800003A031D080067304C25003A031D08009A
:1002980020006608F039031D08006708F039031DBF
:1002A80008006708F9000330F935FF3E031D582997
:1002B80079356604FA007A08C7004708F900790812
:1002C800E0074708F9007908C50066304C25003A70
:1002D800031D080067304C25003A031D0800200064
:1002E8006608F039031D08006708F039031D080087
:1002F8006708F9000330F935FF3E031D7F2979357A
:100308006604FA007A08C7004708F9007908E00788
:100318004708F9007908C60066304C25003A031DE5
:10032800080067304C25003A031D080020006608C5
:10033800F039031D08006708F039031D0800670835
:10034800F9000330F935FF3E031DA6297935660407
:10035800FA007A08E6006608F9007908E0076008FC
:10036800031D080066304C25003A031D08002000D4
:100378006608113A031D08004608F201F20745080D
:10038800F101F1072030F9007908F3001030FA0084
:100398007A08F4007727A92505302A252030F900A6
:1003A80079082000C300C401203044020318EE2954
:1003B80043088600870101082A250130F9007908D9
:1003C8002000C3070130F9007908C407203044022F
:1003D800031CDC29B525080066304C25003A031DAE
:1003E800080067304C25003A031D08002000660805
:1003F800F039031D08006708F039031D0800670875
:10040800F9000330F935FF3E031D062A79356604E5
:10041800FA007A08C7004708F9007908E007470892
:10042800F9007908C50066304C25003A031D08001C
:1004380067304C25003A031D080020006608F03993
:10044800031D08006708F039031D08006708F90054
:100458000330F935FF3E031D2D2A79356604FA006D
:100468007A08C7004708F9007908E0074708F90043
:100478007908C6002030F9007908C300C40120308B
:10048800440203187D2A66304C25003A031D0800F3
:1004980067304C25003A031D080020006608F03933
:1004A800031D08006708F039031D08006708F900F4
:1004B8000330F935FF3E031D5D2A79356604FA00DD
:1004C8007A08C7004708F9007908E0074708F900E3
:1004D800430886008701790881000130F90079080E
:1004E800C3070130F9007908C40720304402031C0F
:1004F800472A66304C25003A031D080067304C2512
:10050800003A031D080020006608F039031D0800A2
:100518006708F039031D08006708F9000330F9354A
:10052800FF3E031D932A79356604FA007A08E6002F
:100538006608F9007908E0076008031D08006630BE
:100548004C25003A031D080020006608113A031DD7
:1005580008004608F201F2074508F101F1072030CA
:10056800F9007908F3001030FA007A08F400FF2641
:10057800D92AD030F1000730F200C030F9007908EC
:10058800F3000930FA007A08F4007727E72AE03008
:10059800F1000730F200A030F9007908F3001030BC
:1005A800FA007A08F4007727E72A20004608073A75
:1005B8000319DF2AE72A4508D03A0319BD2A303A39
:1005C8000319CB2AE72AA92500302A25B5250800D2
:1005D80066304C25003A031D080067304C25003A68
:1005E800031D080020006608F039031D080067088D
:1005F800F039031D08006708F9000330F935FF3E9C
:10060800031D022B79356604FA007A08E6006608AD
:10061800F9007908E0076008031D080066304C25DA
:10062800003A031D080020006608113A031D08005F
:100638004630F1008630F2000630F9007908F30000
:10064800E830F400FD30F500F6019C27A9250030BC
:100658002A25B525080020004008013A0319772803
:10066800023A0319AF28073A03194229023A031933
:10067800F029013A0319EC2A422B0800080020004F
:10068800CF004F085826E030F1000730F200A030C4
:100698002000CD004D08F3001030CE004E08F400C5
:1006A800FF2601302100C4020030C53BD030F100E4
:1006B8000730F200C0302000CD004D08F3000930AB
:1006C800CE004E08F400FF260030F1008630F2001C
:1006D80013302000CD004D08F3006030F400EA30FC
:1006E800F500F6019C27210045084404031D7F2BD3
:1006F800D125A9240800210049082000D101D107EB
:10070800210048082000D001D007510850040319DF
:1007180008000130D0020030D13BD1252000D201A1
:10072800323052020318AC2B462706302000CE0088
:100738003030CD00CD0B9E2BCE0B9E2B0000013010
:100748002000CD004D08D20732305202031C982BEE
:10075800003051021E30031950020318B42BDD2556
:100768002000D301323053020318892B4627063064
:100778002000CE003030CD00CD0BC02BCE0BC02BCF
:10078800000001302000CD004D08D307B62B6925A5
:1007980072082000A101A1077108A001A007210883
:1007A80021004B02031DDC2B2000200821004A02F7
:1007B8000318372C4D0820002102031DE72B2100C8
:1007C8004C08200020020318372C21004F08200075
:1007D8005F02031DF32B21004E0820005E02031860
:1007E800FA2B0130DE070030DF3D08000230C03E42
:1007F800860087011600010403190D2C5D082100ED
:100808004302031D0B2C20005C0821004202031C3C
:10081800352C20005D085C04031D2C2CD1252630C6
:10082800F1008630F2001030F9007908F300B83092
:10083800F4000B30F5000230C03E86008701160038
:100848000104003003190130FA007A08F6009C27E9
:1008580021004008C02701302000DC070030DD3DC2
:100868000800DD250800DD25210043084204031D9A
:10087800432C20005D085C040319432CCC25200080
:10088800DE01DF01DC01DD010800D030F1000730B6
:10089800F200C030F7007708F3000930F800780854
:1008A800F40077273F3021004106031D5D2CFF30FF
:1008B8004006031D9B2C1030C4000030C50080305A
:1008C800C0000030C100C201C3016430C80000305C
:1008D800C900F430CA000130CB004030CE001F30D0
:1008E800CF000230C6000030C700E830CC0003302B
:1008F800CD00B830D0000B30D100D030F100073037
:10090800F200C030F7007708F3000930F8007808E3
:10091800F400FF26E030F1000730F200A030F700C5
:100928007708F3001030F8007808F400FF26E0306C
:10093800F1000730F200A030F7007708F30010301C
:10094800F8007808F400772708002000CB01CC01D4
:100958000430C03E8600870116000104031D08000C
:1009680046272000911EC32C230019082000C80028
:100978004808CA004A08103A031DC32C2820013031
:100988002000CB070030CC3D0630C9003030C8000D
:10099800C80BCC2CC90BCC2C000020004C08210023
:1009A8005102031DDB2C20004B08210050020318C4
:1009B800F32C2000CB01CC01DD2521004008C02705
:1009C8005230F1008630F20003302000C800480899
:1009D800F3001030F4002730F500F6019C272100C1
:1009E8005008CE3E2000C800FF302100513D2000B5
:1009F800C9004C084906031D032D4B084806031D72
:100A0800AC2CD125AC2C7A302100990023008C0124
:100A180021000C110C1023000C163030F100710865
:100A280021009E04673023009B001E129D171F168D
:100A38009E161D168B172100951230302000980441
:100A480003309C0478309C041C150800F4007408DA
:100A58000F39F20072082000E6007408F200043032
:100A6800F236890B342D7208F3007308E700660824
:100A7800C0278530F200F20B3F2D20006708C02701
:100A88008530F200F20B462D74082000E0020800C1
:100A9800F2002000D601D701911A5F2D0130D60748
:100AA8000030D73D75305702303003195602031C09
:100AB800502D0130080023001908F1007208860043
:100AC8008701710881000030080021001D08833962
:100AD8000C389D001D140730F300F30B712D003204
:100AE80021009D149D18762D1C08F4001B08F300A6
:100AF8000630F436F30C890B7D2D7308F100740869
:100B0800F20008003B00BB173B177208B601B60796
:100B18007108B501B5077208F4007108F300F436DE
:100B2800F30C7308B3007408B400B101B201BF1725
:100B3800080007254924210045084404031DA52D64
:100B4800A924AC26CB234627A52D1030C0278530F5
:100B5800F500F50BAD2D2000E001210040082A2505
:100B68000800200060082A251130C0278530F500CC
:100B7800F50BBC2D080022009817200095010B15D5
:100B88008B160800640080010131890BC72D0034E1
:100B9800DA25200018101110080021008C122000FE
:100BA8008C1208008B122200981308003B003B139C
:080BB800080021008C16080062
:100C00006234F0340034FA340034003400340034F8
:100C100000340034003400346F3477347A3459347B
:100C200000340034CC345E347A345934CC345E34FD
:100C3000003400346B346A346F34773470349F344A
:100C40000034003470349F34EA34EE34A0340F346E
:100C5000DB341134D53414340034193440341F34A7
:100C6000AA34293480343E3400347D34E3348A3469
:100C700040349C349234B2345534D0340034FA3495
:100C8000003400340034003400340034CC345E349A
:100C9000B8344F3467342F34B9343B3434343534BA
:100CA000DC34273470349F34EA34EE34EA34EE34E2
:100CB000F50075087F39F100F2017108F60072083D
:100CC000F700F80110307802031808007835A03ECC
:100CD00086008701403FF100413FF2007F307105FF
:100CE000F30000307205F40074087304031D822EB3
:100CF0007835A03E86008701760881044131770867
:100D0000810408007835A03E86008701403FF1004D
:100D1000413FF20080307105F3003F307205F4006E
:100D200074087304031DA72E7708F2007608F100FB
:100D30000730F135F20D890B992E7835A03E8600EB
:100D40008701710881044131720881040800013073
:100D5000F1007108F807622E2000911E08002300A0
:100D600019082000D4005408FB007B08103A031D2A
:100D7000BB2E2820080081307B02031C08007B0862
:100D80002000D400D5012100410820005506031D94
:100D9000CD2E2100400820005406031908008030A1
:100DA00021004006410403190800C11808007B080F
:100DB0002000650603199118E4019A0191107B083F
:100DC000D4005408E5000130D4005408E407640856
:100DD000D400D501550821004702031DF32E200041
:100DE0005408210046020318080023001D127B0846
:100DF00043232000E501230019081D1608008B136A
:100E0000720823009201920771089101910715134E
:100E10001516151555309600AA3096009514000049
:100E200000002300151172089201920771089101C8
:100E300091071513151215159516F601F60A760881
:100E40007402031C432F730886008701403F930000
:100E5000413F94000230F5007508F30776087406E8
:100E60000319951255309600AA309600951400008B
:100E700000000130F5007508230091070130F500EE
:100E80007508F6071F2F15118B1708002000111C7D
:100E9000080061087C02031C542F62080319522FBA
:100EA000FC01542FCC2508007C08F500F601F5352F
:100EB000F60D20005808750784005908763D850016
:100EC000003FF100013FF200862520005A09F5009D
:100ED0005B09F600F50A0319F60A7508960076080C
:100EE00097000130F5007508FC0711100800230079
:100EF0001513720892019207710891019107F6018A
:100F00007408760203180800151400000000730826
:100F10008600870123001308C03F1408C13F023038
:100F2000F5007508F307013091070030923D01305C
:100F3000F5007508F607802F72082000D901D9073F
:100F40007108D801D8077308F7007708E100FC01A1
:100F50007608F7007708E2007508DB01DB07740804
:100F6000DA01DA075A09F7005B09F800F70A0319F2
:100F7000F80A7708960078089700111418140800EA
:100F8000F10023001D12BF25710823009A009E1C4A
:0C0F9000C72FD62523001D1619080800E5
:020000040001F9
:04000E00E4FFFFDE2E
:00000001FF
