:020000001928BD
:100008007E14803120007F08F000111C1528220082
:100018001808203A9800CE3020009607FF30973D08
:1000280011107008FF007E1009001A28AE01AF01F8
:100038005D25FC007E102000F02C2000A401A50105
:10004800A601911A38288530F200F20B29280130D0
:100058002000A5070030A63D03302602E83003192A
:10006800250203180800252823001908F200720841
:100078002000A800A501A601911A53288530F20096
:10008800F20B442801302000A5070030A63D0330BC
:100098002602E83003192502031808004028230027
:1000A8001908F20072082000A7002808F039031D7B
:1000B80008002708F039031D08002708F20003305C
:1000C800F235FF3E031D642872352804F3007308D7
:1000D800A8002808F2007208A40728087C06031D57
:1000E8000800A501A601911A8A288530F200F20BB2
:1000F8007B2801302000A5070030A63D03302602EA
:10010800E830031925020318080077282300190886
:10011800F20072082000A800A501A601911AA528DE
:100128008530F200F20B962801302000A507003038
:10013800A63D03302602E8300319250203180800FB
:10014800922823001908F20072082000A700280846
:10015800F039031D08002708F039031D0800270897
:10016800F2000330F235FF3E031DB628723528042D
:10017800F3007308A0002008F2007208A407DF2B20
:10018800A501A601911AD9288530F200F20BCA28D8
:1001980001302000A5070030A63D03302602E830D4
:1001A8000319250203180800C62823001908F200BD
:1001B80072082000A800A501A601911AF42885302C
:1001C800F200F20BE52801302000A5070030A63D1B
:1001D80003302602E8300319250203180800E12835
:1001E80023001908F20072082000A7002808F03937
:1001F800031D08002708F039031D08002708F2002E
:100208000330F235FF3E031D052972352804F3003B
:100218007308A8002808F2007208A4072408031D20
:100228000800A501A601911A2A298530F200F20BCF
:100238001B2901302000A5070030A63D0330260207
:10024800E8300319250203180800172923001908A4
:10025800F20072082000A8002808113A031D0800BF
:10026800103035252000A4017C080F39F2007208EF
:10027800A8007C08F2000430F236890B4029720885
:10028800F3007308A700280835252000270835251E
:100298007C082000A4020230F2007208A800A7011E
:1002A8002808352520002708352502302000A4021B
:1002B8002F080F39F2007208A8002F08F200043046
:1002C800F236890B64297208F3007308A70028081E
:1002D800352520002708352520002F08A4022408EA
:1002E8000F39F2007208A8002408F2000430F23630
:1002F800890B7B297208F3007308A70028083525A5
:1003080020002708352520002408A40211303525AF
:1003180008002000A501A601911AA3298530F20042
:10032800F20B942901302000A5070030A63D0330C8
:100338002602E83003192502031808009029230033
:100348001908F20072082000A800A501A601911A58
:10035800BE298530F200F20BAF2901302000A50735
:100368000030A63D03302602E830031925020318A1
:100378000800AB2923001908F20072082000A70022
:100388002808F039031D08002708F039031D080064
:100398002708F2000330F235FF3E031DCF297235DE
:1003A8002804F3007308A2002208F2007208A407C8
:1003B800A501A601911AF1298530F200F20BE22974
:1003C80001302000A5070030A63D03302602E830A2
:1003D8000319250203180800DE2923001908F20072
:1003E80072082000A800A501A601911A0C2A8530E0
:1003F800F200F20BFD2901302000A5070030A63DD0
:1004080003302602E8300319250203180800F929E9
:1004180023001908F20072082000A7002808F03904
:10042800031D08002708F039031D08002708F200FB
:100438000330F235FF3E031D1D2A72352804F300F0
:100448007308A3002308F2007208A407A501A601F7
:10045800911A3F2A8530F200F20B302A0130200031
:10046800A5070030A63D03302602E830031925020F
:10047800031808002C2A23001908F200720820002B
:10048800A800A501A601911A5A2A8530F200F20B9C
:100498004B2A01302000A5070030A63D0330260274
:1004A800E8300319250203180800472A2300190811
:1004B800F20072082000A7002808F039031D080080
:1004C8002708F039031D08002708F2000330F23529
:1004D800FF3E031D6B2A72352804F3007308A80039
:1004E8002808F2007208A4072408031D0800A501C3
:1004F800A601911A902A8530F200F20B812A013068
:100508002000A5070030A63D03302602E830031975
:100518002502031808007D2A23001908F200720832
:100528002000A8002808113A031D080022082F06F9
:10053800031D0800103035252000A4017C080F3960
:10054800F2007208A8007C08F2000430F236890B29
:10055800AA2A7208F3007308A70028083525200086
:10056800270835257C082000A402A801A70128082F
:100578003525200027083525200024080F39F200EA
:100588007208A8002408F2000430F236890BC92A40
:100598007208F3007308A7002808352520002708EB
:1005A800352520002408A402113035252000230811
:1005B800F2007208FC000800A501A601911AF52AAC
:1005C8008530F200F20BE62A01302000A507003042
:1005D800A63D03302602E830031925020318080057
:1005E800E22A23001908F20072082000A800A501D9
:1005F800A601911A102B8530F200F20B012B013065
:100608002000A5070030A63D03302602E830031974
:10061800250203180800FD2A23001908F2007208B1
:100628002000A7002808F039031D08002708F03922
:10063800031D08002708F2000330F235FF3E031DB2
:10064800212B72352804F3007308A1002108F20059
:100658007208A407A501A601911A432B8530F20060
:10066800F20B342B01302000A5070030A63D0330E3
:100678002602E8300319250203180800302B23004E
:100688001908F20072082000A800A501A601911A15
:100698005E2B8530F200F20B4F2B01302000A507AE
:1006A8000030A63D03302602E8300319250203185E
:1006B80008004B2B23001908F20072082000A7003D
:1006C8002808F039031D08002708F039031D080021
:1006D8002708F2000330F235FF3E031D6F2B7235F9
:1006E8002804F3007308A8002808F2007208A40779
:1006F8002408031D0800A501A601911A942B853032
:10070800F200F20B852B01302000A5070030A63D32
:1007180003302602E8300319250203180800812B4C
:1007280023001908F20072082000A8002808113ACE
:10073800031D08002108F2007208AE0010303525AC
:100748002000A4017C080F39F2007208A8007C0878
:10075800F2000430F236890BAE2B7208F3007308EE
:10076800A700280835252000270835257C08200003
:10077800A402A801A7012808352520002708352547
:10078800200024080F39F2007208A8002408F2009B
:100798000430F236890BCD2B7208F3007308A700DA
:1007A8002808352520002708352520002408A4021C
:1007B80011303525080020002008013A0319C42803
:1007C800023A03198D290B3A0319E02AEC2B080089
:1007D80008002000A101F41FFE2BF109F209F3091A
:1007E800F409F10A0319F20A0319F30A0319F40ABE
:1007F800A101A10AF81F0F2CF509F609F709F80954
:10080800F50A0319F60A0319F70A0319F80A013059
:10081800F9007908A1060030A5000030A4000030D6
:10082800A3000030A2007408730472047104031951
:10083800582CA001A00AF41B2D2C0130F135F20D23
:10084800F30DF40D890B222C0130F9007908A0076B
:100858001F2C0130A235A30DA40DA50D890B2E2C3C
:1008680074087802031D422C73087702031D422C7A
:1008780072087602031D422C71087502031C4D2C68
:100888007108F5027208F63B7308F73B7408F83BE9
:1008980022140130F436F30CF20CF10C890B4E2CB7
:1008A8000130A002031D2D2C21080319662CA20972
:1008B800A309A409A509A20A0319A30A0319A40AEA
:1008C8000319A50A2508F4002408F3002308F200F8
:1008D8002208F10008003B00BB173B172000260840
:1008E800F1002708F200F301F4010030F800F430B9
:1008F800F7002430F6000030F500ED237108FF3EC4
:10090800FA00FF30723DFB007A083B00B5007B0817
:10091800B6003608FB003508FA00FB36FA0C7A08F0
:10092800B3007B08B400B101B201BF172000AA01CF
:10093800AB012B082902031DA32C2A082802031C3B
:10094800B42C0630FB003030FA00FA0BA92CFB0B54
:10095800A92C000001302000AA070030AB3D9D2CD7
:100968003B003B1308005725A0302000A6000F309D
:10097800A7006430A8000030A9006F245A25AC30C5
:100988002000A6000D30A7006430A8000030A900A0
:100998006F245725A0302000A6000F30A700643030
:1009A800A8000030A9006F245A2594302000A60022
:1009B8001130A7006430A8000030A9006F24572523
:1009C800A0302000A6000F30A7006430A800003037
:1009D800A9006F245A2508000C2525252000911E02
:1009E800F12C230019082000AC002C08AD002D08BC
:1009F800103A031D002D2120813020002D02031CF8
:100A0800F12C2D087C060319F12C2D08B724F12CA4
:100A18007A302100990023008C0121008C120C11DE
:100A28000C1020008C163030F100710821009E0453
:100A3800673023009B001E129D171F169E161D1659
:100A4800080020000C1E08007C083525B83020005E
:100A5800A6000B30A7003230A8000030A9006F2490
:100A68000800F10023001D124325710823009A0095
:100A78009E1C3C2D512523001D1619080800220034
:100A880098178B170B17210011142000181518142C
:100A9800FF309700CE30960008008B132000181006
:100AA80022009813080020008C12080020008C16E1
:040AB800080080347E
:020000040001F9
:04000E00E4FFFFDE2E
:00000001FF
