:020000001528C1
:10000800803120007F08F0000B1D122822001808FC
:10001800203A98003230200095020B117008FF003A
:10002800090016284B308400003085002230F52660
:10003800A0308400003085002030F526363084005A
:1000480086308500C0308600003087002030FB26CF
:100058002000012F2000D3016B309126003A031DA8
:1000680008006C309126003A031D080020006B0838
:10007800F039031D08006C08F039031D08006C08EE
:10008800F7000330F735FF3E031D462877356B042C
:10009800F8007808EB006B08F7007708D3076B08BF
:1000A800F700F8015C087806031D5C285B087706F2
:1000B800031D08006B309126003A031D08006C30C0
:1000C8009126003A031D080020006B08F039031D33
:1000D80008006C08F039031D08006C08F7000330AD
:1000E800F735FF3E031D742877356B04F800780850
:1000F800C0004008F7007708D307F82A6B3091262C
:10010800003A031D08006C309126003A031D0800D0
:1001180020006B08F039031D08006C08F039031D36
:1001280008006C08F7000330F735FF3E031D9828D8
:1001380077356B04F8007808EB006B08F700770850
:10014800D3075308031D08006B309126003A031D9E
:10015800080020006B08113A031D0800D926023058
:100168001426200058081426E42608006B3091262F
:10017800003A031D08006C309126003A031D080060
:1001880020006B08F039031D08006C08F039031DC6
:1001980008006C08F7000330F735FF3E031DD02830
:1001A80077356B04F8007808C1004108F700770834
:1001B800D3076B309126003A031D08006C30912656
:1001C800003A031D080020006B08F039031D0800E1
:1001D8006C08F039031D08006C08F7000330F73588
:1001E800FF3E031DF32877356B04F8007808C2003A
:1001F8004208F7007708D3076B309126003A031DB1
:1002080008006C309126003A031D080020006B0896
:10021800F039031D08006C08F039031D08006C084C
:10022800F7000330F735FF3E031D162977356B04B9
:10023800F8007808EB006B08F7007708D307530835
:10024800031D08006B309126003A031D08002000AA
:100258006B08113A031D080041085806031D0800E1
:10026800D92600301426E42620004208F700F801B9
:100278007708DB007808DC00D030F1000730F200A6
:100288005B30F7007708F3000830F8007808F400CE
:10029800422408006B309126003A031D08006C3098
:1002A8009126003A031D080020006B08F039031D51
:1002B80008006C08F039031D08006C08F7000330CB
:1002C800F735FF3E031D642977356B04F80078087D
:1002D800C7004708F7007708D3074708F7007708EB
:1002E800C5006B309126003A031D08006C3091263A
:1002F800003A031D080020006B08F039031D0800B0
:100308006C08F039031D08006C08F7000330F73556
:10031800FF3E031D8B2977356B04F8007808C7006A
:100328004708F7007708D3074708F7007708C6009B
:100338006B309126003A031D08006C309126003A74
:10034800031D080020006B08F039031D08006C0825
:10035800F039031D08006C08F7000330F735FF3E3D
:10036800031DB22977356B04F8007808EB006B0899
:10037800F7007708D3075308031D08006B30912650
:10038800003A031D080020006B08113A031D0800FD
:100398004608F201F2074508F101F1072030F7009D
:1003A8007708F3001030F8007808F400CC25D92637
:1003B800053014262030F70077082000C300C40158
:1003C800203044020318FA294308860087010108EF
:1003D80014260130F70077082000C3070130F70022
:1003E8007708C40720304402031CE829E4260800E3
:1003F8006B309126003A031D08006C309126003AB4
:10040800031D080020006B08F039031D08006C0864
:10041800F039031D08006C08F7000330F735FF3E7C
:10042800031D122A77356B04F8007808C7004708BF
:10043800F7007708D3074708F7007708C5006B303F
:100448009126003A031D08006C309126003A031DDE
:10045800080020006B08F039031D08006C08F0390B
:10046800031D08006C08F7000330F735FF3E031D35
:10047800392A77356B04F8007808C7004708F70071
:100488007708D3074708F7007708C6002030F70039
:100498007708C300C401203044020318892A6B304E
:1004A8009126003A031D08006C309126003A031D7E
:1004B800080020006B08F039031D08006C08F039AB
:1004C800031D08006C08F7000330F735FF3E031DD5
:1004D800692A77356B04F8007808C7004708F700E1
:1004E8007708D3074708F70043088600870177088D
:1004F80081000130F7007708C3070130F70077085B
:10050800C40720304402031C532A6B309126003A5A
:10051800031D08006C309126003A031D08002000D6
:100528006B08F039031D08006C08F039031D08003A
:100538006C08F7000330F735FF3E031D9F2A773517
:100548006B04F8007808EB006B08F7007708D3070E
:100558005308031D08006B309126003A031D08005C
:1005680020006B08113A031D08004608F201F20743
:100578004508F101F1072030F7007708F300103043
:10058800F8007808F4004224E52AD030F10007305A
:10059800F2005B30F7007708F3000830F8007808BD
:1005A800F400CC25F32AE030F1000730F200A03047
:1005B800F7007708F3001030F8007808F400CC252D
:1005C800F32A20004608073A0319EB2AF32A4508BC
:1005D800D03A0319C92A303A0319D72AF32AD92657
:1005E80000301426E426080020004008013A0319C8
:1005F8008228023A0319BA28073A03194E29023AFF
:100608000319FC29082B080008002000A101F41F89
:100618001A2BF109F209F309F409F10A0319F20A8C
:100628000319F30A0319F40AA101A10AF81F2B2BD5
:10063800F509F609F709F809F50A0319F60A03197D
:10064800F70A0319F80A0130F9007908A106003001
:10065800A5000030A4000030A3000030A2007408F8
:100668007304720471040319742BA001A00AF41B0B
:10067800492B0130F135F20DF30DF40D890B3E2BAA
:100688000130F9007908A0073B2B0130A235A30DF2
:10069800A40DA50D890B4A2B74087802031D5E2B47
:1006A80073087702031D5E2B72087602031D5E2B0A
:1006B80071087502031C692B7108F5027208F63B74
:1006C8007308F73B7408F83B22140130F436F30C36
:1006D800F20CF10C890B6A2B0130A002031D492B87
:1006E80021080319822BA209A309A409A509A20AB2
:1006F8000319A30A0319A40A0319A50A2508F40073
:100708002408F3002308F2002208F10008007426E8
:100718007208FB01FB077108FA01FA077B08200041
:100728006602031D992B7A0865020318E62B6808F0
:100738007B02031DA12B67087A020318E62B6A08BF
:100748005202031DA92B690851020318B02B01306E
:10075800D1070030D23D080002305B3E8600870199
:10076800160001040319C02B50085E02031DBE2B9E
:100778004F085D02031CE42B50084F04031DDB2BBC
:100788000C271030F8007808F100B830F2000B3070
:10079800F30002305B3E860087011600010400303A
:1007A80003190130F9007908F400C030F125200060
:1007B8005B08CB2601302000CF070030D03D080071
:1007C80015270800152707272000D101D201CF01DE
:1007D800D0010800F50075087F39F100F2017108B1
:1007E800F6007208F700F8011030780203180800C4
:1007F8007835A03E86008701403FF100413FF20076
:100808007F307105F30000307205F400740873043A
:10081800031D182C7835A03E8600870176088104D0
:1008280041317708810408007835A03E86008701A9
:10083800403FF100413FF20080307105F3003F3046
:100848007205F40074087304031D3D2C7708F20048
:100858007608F1000730F135F20D890B2F2C783529
:10086800A03E860087017108810441317208810425
:1008780008000130F1007108F807F82B8B13720893
:10088800230092019207710891019107151315161B
:10089800151555309600AA309600951400000000F2
:1008A80023001511720892019207710891019107AE
:1008B8001513151215159516F601F60A7608740221
:1008C800031C862C730886008701403F9300413F34
:1008D80094000230F5007508F307760874060319CA
:1008E800951255309600AA30960095140000000025
:1008F8000130F5007508230091070130F5007508EF
:10090800F607622C15118B170800D030F10007305C
:10091800F2005B30F7007708F3000830F800780839
:10092800F400CC253F3020005C06031D9D2CFF30D1
:100938005B06031DBB2C1030DF000030E000803068
:10094800DB000030DC00DD01DE010A30E3000030AE
:10095800E400F430E5000130E600E901EA01013085
:10096800E1000030E200D030E7000730E800E03076
:10097800F1000730F200A030F7007708F3001030DC
:10098800F8007808F400CC2508002000911E080023
:10099800230019082000C8004808CA004A08103A6D
:1009A800031DD82C2E200800813020004A02031C89
:1009B80008004A08C800C9015C084906031DE62C5E
:1009C8005B084806031908004A085A06031DD9019E
:1009D8004A08C8004808DA000130C8004808D907A2
:1009E8005908C800C90149086202031DFD2C4808BE
:1009F8006102031808004A0870252000DA0108007F
:100A0800F5011030750203183A2D7535A03E8600A1
:100A18008701403FF100413FF2007F307105F3004C
:100A280000307205F40074087304031D1D2D75351C
:100A380008007535A03E86008701403FF100413F20
:100A4800F20080307105F3003F307205F40074083D
:100A58007304031D322D0314750D08000130F100D5
:100A68007108F50710307502031C092D753508004B
:100A780020002808F1002908F200F301F4010030F1
:100A8800F800F430F7002430F6000030F5000923B0
:100A98007108FF3E2000A600FF30723DA700AE2679
:100AA8002000AE01AF012B082F02031D5D2D2A087F
:100AB8002E0203186E2D0630AD003030AC00AC0BA2
:100AC800632DAD0B632D000001302000AE07003010
:100AD800AF3D572D18270800FC007C08EE23E030B6
:100AE800F1000730F200A0302000B0003008F30019
:100AF8001030B1003108F4004224E8302000A8008A
:100B08000330A9003230AA000030AB003C25042590
:100B18002000B000B10131086002031D952D300896
:100B28005F02031808006430A8000030A900D03024
:100B3800AA000730AB003C2508002000111C080063
:100B480056355407A800280886008701403FA600AC
:100B5800413FA700AE2620004D09A8004E09A90074
:100B6800A80A0319A90A280896002908970001303D
:100B7800A8002808D60755085602031CC92D57088F
:100B88000319C82DD601C92D072720001110080008
:100B980023001513720892019207710891019107B9
:100BA800F601740876020318080015140000000006
:100BB80073088600870123001308C03F1408C13F4B
:100BC8000230F5007508F307013091070030923DB7
:100BD8000130F5007508F607D52DF7007708F50000
:100BE80075082000D4007108F5007508D500D601F5
:100BF8007408F5007508D7007308CE01CE0772088F
:100C0800CD01CD074D09F5004E09F600F50A031987
:100C1800F60A75089600760897001114181408004B
:100C2800F40074080F39F20072082000EB00740811
:100C3800F2000430F236890B1E2E7208F300730896
:100C4800EC006B08CB268530F200F20B292E200031
:100C58006C08CB268530F200F20B302E7408200089
:100C6800D3020800A0340F34DB341134D5341434E3
:100C78000034193440341F34AA34293480343E34C3
:100C880000347D34E3348A3440349C349234B234B2
:100C98005534D0341A34FF3400340034003400346E
:100CA800003400347A302100990023008C0121009F
:100CB8000C110C1023000C163030F10071082100C3
:100CC8009E04673023009B001E129D171F169E1658
:100CD8001D168B172100951230302000980408004B
:100CE80021001D0883390C389D001D140730F300BE
:100CF800F30B7C2E7F2E21009D149D18812E1C083D
:100D0800F4001B08F3000630F436F30C890B882E28
:100D18007308F1007408F2000800F2002000CB010B
:100D2800CC01911AA42E0130CB070030CC3D2730DE
:100D38004C02103003194B02031C952E0130080099
:100D480023001908F10072088600870171088100E4
:100D5800003008003B00BB173B17200027083B006A
:100D6800B601B607200026083B00B501B5072000EC
:100D78002708FB002608FA00FB36FA0C7A083B0025
:100D8800B3007B08B400B101B201BF170800F1003D
:100D980023001D12EE26710823009A009E1CD22EF5
:100DA800112723001D16190808001030CB2685309E
:100DB800F500F50BDD2E2000D3015B081426080092
:100DC8002000530814261130CB268530F500F50B8A
:100DD800EB2E080022009817200095010B158B16A2
:100DE8000800640080010131890BF62E0034FE00F2
:100DF80012001E00FE0BFC2E003456268924C9243E
:100E08008B23A125032F1827200018101110080084
:100E180021008C1220008C1608008B1222009813D7
:0E0E2800080021008C1608003B003B13080058
:020000040001F9
:04000E00E4FFFFDE2E
:00000001FF
