:020000001528C1
:10000800803120007F08F0000B1D122822001808FC
:10001800203A98003230200095020B117008FF003A
:1000280009001628FC014A3084000030850022307F
:10003800B426A0308400003085002030B426FB3080
:10004800840085308500C03086000030870020306D
:10005800BA266A3084008530850020308600013059
:1000680087002630BA262000C02E2000D4016A302E
:100078005626003A031D08006B305626003A031D29
:10008800080020006A08F039031D08006B08F039E1
:10009800031D08006B08F7000330F735FF3E031D0A
:1000A800512877356A04F8007808EA006A08F700EA
:1000B8007708D4076A08F700F8015B087806031D7B
:1000C80067285A087706031D08006A305626003A42
:1000D800031D08006B305626003A031D0800200057
:1000E8006A08F039031D08006B08F039031D080081
:1000F8006B08F7000330F735FF3E031D7F2877357F
:100108006A04F8007808C0004008F7007708D407A8
:10011800032B6A305626003A031D08006B3056261A
:10012800003A031D080020006A08F039031D080082
:100138006B08F039031D08006B08F7000330F7352A
:10014800FF3E031DA32877356A04F8007808EA0003
:100158006A08F7007708D4075408031D08006A30B6
:100168005626003A031D080020006A08113A031DAC
:10017800080098260230D92520005708D925A3263B
:1001880008006A305626003A031D08006B305626D0
:10019800003A031D080020006A08F039031D080012
:1001A8006B08F039031D08006B08F7000330F735BA
:1001B800FF3E031DDB2877356A04F8007808C10084
:1001C8004108F7007708D4076A305626003A031D1D
:1001D80008006B305626003A031D080020006A0804
:1001E800F039031D08006B08F039031D08006B087F
:1001F800F7000330F735FF3E031DFE2877356A0404
:10020800F8007808C2004208F7007708D4076A3077
:100218005626003A031D08006B305626003A031D87
:10022800080020006A08F039031D08006B08F0393F
:10023800031D08006B08F7000330F735FF3E031D68
:10024800212977356A04F8007808EA006A08F70077
:100258007708D4075408031D08006A305626003A68
:10026800031D080020006A08113A031D0800410810
:100278005706031D080098260030D925A32620001C
:100288004208F700F8017708DA007808DB00D03078
:10029800F1000730F2005A30F7007708F300083011
:1002A800F8007808F4003F2408006A305626003A1F
:1002B800031D08006B305626003A031D0800200075
:1002C8006A08F039031D08006B08F039031D08009F
:1002D8006B08F7000330F735FF3E031D6F297735AC
:1002E8006A04F8007808C7004708F7007708D407B9
:1002F8004708F7007708C5006A305626003A031DFC
:1003080008006B305626003A031D080020006A08D2
:10031800F039031D08006B08F039031D08006B084D
:10032800F7000330F735FF3E031D962977356A0439
:10033800F8007808C7004708F7007708D407470887
:10034800F7007708C6006A305626003A031D0800F1
:100358006B305626003A031D080020006A08F03961
:10036800031D08006B08F039031D08006B08F7002F
:100378000330F735FF3E031DBD2977356A04F800C1
:100388007808EA006A08F7007708D4075408031DBC
:1003980008006A305626003A031D080020006A0843
:1003A800113A031D08004608F201F2074508F10159
:1003B800F1072030F7007708F3001030F8007808CC
:1003C800F400902598260530D9252030F7007708C5
:1003D8002000C300C401203044020318052A430842
:1003E800860087010108D9250130F7007708200029
:1003F800C3070130F7007708C40720304402031C04
:10040800F329A32608006A305626003A031D08007F
:100418006B305626003A031D080020006A08F039A0
:10042800031D08006B08F039031D08006B08F7006E
:100438000330F735FF3E031D1D2A77356A04F8009F
:100448007808C7004708F7007708D4074708F70077
:100458007708C5006A305626003A031D08006B303D
:100468005626003A031D080020006A08F039031DCB
:1004780008006B08F039031D08006B08F70003300B
:10048800F735FF3E031D442A77356A04F8007808DB
:10049800C7004708F7007708D4074708F700770828
:1004A800C6002030F7007708C300C401203044029A
:1004B8000318942A6A305626003A031D08006B3048
:1004C8005626003A031D080020006A08F039031D6B
:1004D80008006B08F039031D08006B08F7000330AB
:1004E800F735FF3E031D742A77356A04F80078084B
:1004F800C7004708F7007708D4074708F7004308FC
:1005080086008701770881000130F7007708C30764
:100518000130F7007708C40720304402031C5E2A24
:100528006A305626003A031D08006B305626003AFA
:10053800031D080020006A08F039031D08006B0835
:10054800F039031D08006B08F7000330F735FF3E4C
:10055800031DAA2A77356A04F8007808EA006A08B1
:10056800F7007708D4075408031D08006A30562698
:10057800003A031D080020006A08113A031D08000C
:100588004608F201F2074508F101F1072030F700AB
:100598007708F3001030F8007808F4003F24F02AB8
:1005A800D030F1000730F2005A30F7007708F30036
:1005B8000830F8007808F4009025FE2AE030F100B1
:1005C8000730F200A030F7007708F3001030F80089
:1005D8007808F4009025FE2A20004608073A0319F7
:1005E800F62AFE2A4508D03A0319D42A303A0319C4
:1005F800E22AFE2A98260030D925A32608002000E2
:100608004008013A03198D28023A0319C528073A08
:1006180003195929023A0319072A132B080008005D
:10062800392672082000A101A1077108A001A007BE
:1006380021086502031D222B200864020318722B6F
:1006480067082102031D2A2B660820020318722B53
:1006580069085302031D322B680852020318392B0C
:100668000130D2070030D33D080002305A3E8600E0
:100678008701160001040319492B51085D02031D67
:10068800472B50085C02031C702B51085004031DB3
:10069800672BC626C030F1000030F2001030F90098
:1006A8007908F300B830F4000B30F50002305A3EF8
:1006B8008600870116000104003003190130FA0092
:1006C8007A08F600B52520005A088A26013020004D
:1006D800D0070030D13D0800D9260800D9262000CF
:1006E8005D085C04031D7D2B5108500403197D2B04
:1006F800D0262000D201D301D001D101080020006A
:10070800A0002008EB23E030F1000730F200A03011
:10071800F9007908F3001030FA007A08F4003F2451
:100728002030F1000130F2001330F9007908F300AD
:100738006030F400EA30F500F601B52520006308C2
:10074800A201A2076208A101A10722082104031936
:10075800E92B0130A1020030A23BCB262000A301E7
:10076800323023020318CB2B39250630FA003030FB
:10077800F900F90BBD2BFA0BBD2B00000130F90075
:1007880079082000A30732302302031CB82B00305D
:1007980022021E30031921020318D32BD926200068
:1007A800A401323024020318A92B39250630FA0097
:1007B8003030F900F90BDE2BFA0BDE2B000001308C
:1007C800F90079082000A407D52B01250800F500B9
:1007D80075087F39F100F2017108F6007208F70018
:1007E800F80110307802031808007835A03E86001A
:1007F8008701403FF100413FF2007F307105F3006F
:1008080000307205F40074087304031D152C783544
:10081800A03E86008701760881044131770881046B
:1008280008007835A03E86008701403FF100413F2F
:10083800F20080307105F3003F307205F40074084F
:100848007304031D3A2C7708F2007608F10007308C
:10085800F135F20D890B2C2C7835A03E86008701E6
:100868007108810441317208810408000130F100E7
:100878007108F807F52B8B13720823009201920771
:100888007108910191071513151615155530960025
:10089800AA30960095140000000023001511720874
:1008A80092019207710891019107151315121515F8
:1008B8009516F601F60A76087402031C832C730851
:1008C80086008701403F9300413F94000230F500C5
:1008D8007508F307760874060319951255309600C3
:1008E800AA3096009514000000000130F500750844
:1008F800230091070130F5007508F6075F2C1511E4
:100908008B170800D030F1000730F2005A30F7009A
:100918007708F3000830F8007808F40090253F3095
:1009280020005B06031D9A2CFF305A06031DB82CC5
:100938001030DE000030DF008030DA000030DB00ED
:10094800DC01DD016430E2000030E300F430E40053
:100958000130E500E801E9010130E0000030E10084
:10096800D030E6000730E700E030F1000730F20051
:10097800A030F7007708F3001030F8007808F4008A
:10098800902508002000911E080023001908200067
:10099800C8004808FB007B08103A031DD52C3920F5
:1009A800080081307B02031C08007B082000C80077
:1009B800C9015B084906031DE32C5A0848060319B8
:1009C80008007B085906031DD8017B08C8004808A1
:1009D800D9000130C8004808D8075808C800C9011C
:1009E80049086102031DFA2C480860020318080030
:1009F8007B0883232000D9010800F5011030750217
:100A08000318372D7535A03E86008701403FF10059
:100A1800413FF2007F307105F30000307205F400A9
:100A280074087304031D1A2D753508007535A03E2A
:100A380086008701403FF100413FF2008030710598
:100A4800F3003F307205F40074087304031D2F2D62
:100A58000314750D08000130F1007108F507103016
:100A68007502031C062D753508002000111C0800AE
:100A780055087C02031C472D56080319452DFC0117
:100A8800472DD02608007C08F500F601F535F60D4F
:100A9800750820004C07860076084D3D8700403FCA
:100AA800F100413FF200732620004E09F5004F097E
:100AB800F600F50A0319F60A7508960076089700F5
:100AC8000130F5007508FC07111008006234F03495
:100AD8000034FA3400340034003400340034003474
:100AE800003400346F3477347A34593400340034A5
:100AF800CC345E347A345934CC345E340034003427
:100B08006B346A346F34773470349F340034003473
:100B180070349F34EA34EE342300151372089201BE
:100B28009207710891019107F6017408760203187B
:100B380008001514000000007308860087012300D0
:100B48001308C03F1408C13F0230F5007508F307C9
:100B5800013091070030923D0130F5007508F60725
:100B6800992D72082000CD01CD077108CC01CC0762
:100B78007308F7007708D500FC017608F7007708B6
:100B8800D6007508CF01CF077408CE01CE074E09ED
:100B9800F7004F09F800F70A0319F80A77089600D2
:100BA80078089700111418140800F40074080F3915
:100BB800F20072082000EA007408F2000430F236ED
:100BC800890BE32D7208F3007308EB006A088A2684
:100BD8008530F200F20BEE2D20006B088A26853056
:100BE800F200F20BF52D74082000D4020800A0349E
:100BF8000F34DB341134D534143400341934403410
:100C08001F34AA34293480343E3400347D34E3342C
:100C18008A3440349C349234B2345534D03400345D
:100C2800FA340034003400340034003400347A30AC
:100C38002100990023008C0121000C110C102300C5
:100C48000C163030F100710821009E046730230033
:100C58009B001E129D171F169E161D168B1721002E
:100C68009512303020009804080021001D088339AF
:100C78000C389D001D140730F300F30B412E442E51
:100C880021009D149D18462E1C08F4001B08F30033
:100C98000630F436F30C890B4D2E7308F1007408F6
:100CA800F2000800F2002000CA01CB01911A692E57
:100CB8000130CA070030CB3D27304B0210300319F2
:100CC8004A02031C5A2E0130080023001908F100BB
:100CD80072088600870171088100003008003B0017
:100CE800BB173B177208B601B6077108B501B507FF
:100CF8007208F4007108F300F436F30C7308B300BB
:100D08007408B400B101B201BF170800F100230054
:100D18001D12AD26710823009A009E1C912ED5261F
:100D280023001D161908080010308A268530F500A2
:100D3800F50B9C2E2000D4015A08D9250800200064
:100D48005408D92511308A268530F500F50BAA2ECE
:100D5800080022009817200095010B158B16080033
:100D6800640080010131890BB52E0034FE001200A9
:100D78001E00FE0BBB2E00341B268624C62414231B
:100D88003925C22E21008C1220008C160800210063
:100D98008C1220008C120800DC262000181011107C
:100DA80008008B1222009813080021008C160800F6
:060DB8003B003B130800A4
:020000040001F9
:04000E00E4FFFFDE2E
:00000001FF
