:020000001D28B9
:100008007E14803120007F08F000111C192822007E
:100018001808203A980020000C08203A8C00CE30AE
:1000280020009607FF30973D11107008FF007E10E2
:1000380009001E28AE01AF011325FC007E10200028
:10004800D12C2000A401A501A601911A3C288530D5
:10005800F200F20B2D2801302000A5070030A63D44
:1000680003302602E830031925020318080029285E
:1000780023001908F20072082000A800A501A601B3
:10008800911A57288530F200F20B482801302000D9
:10009800A5070030A63D03302602E83003192502E3
:1000A80003180800442823001908F20072082000E9
:1000B800A7002808F039031D08002708F039031D98
:1000C80008002708F2000330F235FF3E031D6828B8
:1000D80072352804F3007308A8002808F200720893
:1000E800A40728087C06031D0800A501A601911A8B
:1000F8008E288530F200F20B7F2801302000A507FA
:100108000030A63D03302602E83003192502031803
:1001180008007B2823001908F20072082000A800B4
:10012800A501A601911AA9288530F200F20B9A2898
:1001380001302000A5070030A63D03302602E83034
:100148000319250203180800962823001908F2004D
:1001580072082000A7002808F039031D08002708A6
:10016800F039031D08002708F2000330F235FF3E7E
:10017800031DBA2872352804F3007308A00020086C
:10018800F2007208A407E32BA501A601911ADD2845
:100198008530F200F20BCE2801302000A507003090
:1001A800A63D03302602E83003192502031808008B
:1001B800CA2823001908F20072082000A800A50127
:1001C800A601911AF8288530F200F20BE9280130CF
:1001D8002000A5070030A63D03302602E8300319A9
:1001E800250203180800E52823001908F200720800
:1001F8002000A7002808F039031D08002708F03957
:10020800031D08002708F2000330F235FF3E031DE6
:10021800092972352804F3007308A8002808F20099
:100228007208A4072408031D0800A501A601911A55
:100238002E298530F200F20B1F2901302000A50776
:100248000030A63D03302602E830031925020318C2
:1002580008001B2923001908F20072082000A800D2
:100268002808113A031D0800103000252000A401B9
:100278007C080F39F2007208A8007C08F2000430EC
:10028800F236890B44297208F3007308A70028087E
:1002980000252000270800257C082000A402023041
:1002A800F2007208A800A7012808002520002708E6
:1002B800002502302000A4022F080F39F20072082E
:1002C800A8002F08F2000430F236890B682972085A
:1002D800F3007308A7002808002520002708002538
:1002E80020002F08A40224080F39F2007208A80081
:1002F8002408F2000430F236890B7F297208F300D3
:100308007308A700280800252000270800252000DA
:100318002408A4021130002508002000A501A60128
:10032800911AA7298530F200F20B98290130200094
:10033800A5070030A63D03302602E8300319250240
:1003480003180800942923001908F20072082000F5
:10035800A800A501A601911AC2298530F200F20B66
:10036800B32901302000A5070030A63D033026023E
:10037800E8300319250203180800AF2923001908DB
:10038800F20072082000A7002808F039031D0800B1
:100398002708F039031D08002708F2000330F2355A
:1003A800FF3E031DD32972352804F3007308A20009
:1003B8002208F2007208A407A501A601911AF529DE
:1003C8008530F200F20BE62901302000A507003045
:1003D800A63D03302602E830031925020318080059
:1003E800E22923001908F20072082000A800A501DC
:1003F800A601911A102A8530F200F20B012A013069
:100408002000A5070030A63D03302602E830031976
:10041800250203180800FD2923001908F2007208B4
:100428002000A7002808F039031D08002708F03924
:10043800031D08002708F2000330F235FF3E031DB4
:10044800212A72352804F3007308A3002308F20058
:100458007208A407A501A601911A432A8530F20063
:10046800F20B342A01302000A5070030A63D0330E6
:100478002602E8300319250203180800302A230051
:100488001908F20072082000A800A501A601911A17
:100498005E2A8530F200F20B4F2A01302000A507B2
:1004A8000030A63D03302602E83003192502031860
:1004B80008004B2A23001908F20072082000A70040
:1004C8002808F039031D08002708F039031D080023
:1004D8002708F2000330F235FF3E031D6F2A7235FC
:1004E8002804F3007308A8002808F2007208A4077B
:1004F8002408031D0800A501A601911A942A853035
:10050800F200F20B852A01302000A5070030A63D35
:1005180003302602E8300319250203180800812A4F
:1005280023001908F20072082000A8002808113AD0
:10053800031D080022082F06031D0800103000259F
:100548002000A4017C080F39F2007208A8007C087A
:10055800F2000430F236890BAE2A7208F3007308F1
:10056800A700280800252000270800257C0820006F
:10057800A402A801A70128080025200027080025B3
:10058800200024080F39F2007208A8002408F2009D
:100598000430F236890BCD2A7208F3007308A700DD
:1005A8002808002520002708002520002408A40288
:1005B8001130002520002308F2007208FC00080012
:1005C800A501A601911AF92A8530F200F20BEA2A50
:1005D80001302000A5070030A63D03302602E83090
:1005E8000319250203180800E62A23001908F20057
:1005F80072082000A800A501A601911A142B8530C5
:10060800F200F20B052B01302000A5070030A63DB3
:1006180003302602E8300319250203180800012BCD
:1006280023001908F20072082000A7002808F039F2
:10063800031D08002708F039031D08002708F200E9
:100648000330F235FF3E031D252B72352804F300D5
:100658007308A1002108F2007208A407A501A601E9
:10066800911A472B8530F200F20B382B013020000D
:10067800A5070030A63D03302602E83003192502FD
:1006880003180800342B23001908F2007208200010
:10069800A800A501A601911A622B8530F200F20B81
:1006A800532B01302000A5070030A63D0330260259
:1006B800E83003192502031808004F2B23001908F6
:1006C800F20072082000A7002808F039031D08006E
:1006D8002708F039031D08002708F2000330F23517
:1006E800FF3E031D732B72352804F3007308A8001E
:1006F8002808F2007208A4072408031D0800A501B1
:10070800A601911A982B8530F200F20B892B013043
:100718002000A5070030A63D03302602E830031963
:10072800250203180800852B23001908F200720817
:100738002000A8002808113A031D08002108F2002B
:100748007208AE00103000252000A4017C080F3983
:10075800F2007208A8007C08F2000430F236890B17
:10076800B22B7208F3007308A700280800252000A0
:10077800270800257C082000A402A801A701280852
:100788000025200027080025200024080F39F20042
:100798007208A8002408F2000430F236890BD12B25
:1007A8007208F3007308A70028080025200027080E
:1007B800002520002408A40211300025080020008C
:1007C8002008013A0319C828023A031991290B3A5B
:1007D8000319E42AF02B080008002000A101F41FE7
:1007E800022CF109F209F309F409F10A0319F20AD2
:1007F8000319F30A0319F40AA101A10AF81F132C1B
:10080800F509F609F709F809F50A0319F60A0319AB
:10081800F70A0319F80A0130F9007908A10600302F
:10082800A5000030A4000030A3000030A200740826
:1008380073047204710403195C2CA001A00AF41B50
:10084800312C0130F135F20DF30DF40D890B262C06
:100858000130F9007908A007232C0130A235A30D37
:10086800A40DA50D890B322C74087802031D462CA3
:1008780073087702031D462C72087602031D462C66
:1008880071087502031C512C7108F5027208F63BB9
:100898007308F73B7408F83B22140130F436F30C64
:1008A800F20CF10C890B522C0130A002031D312CE3
:1008B800210803196A2CA209A309A409A509A20AF7
:1008C8000319A30A0319A40A0319A50A2508F400A1
:1008D8002408F3002308F2002208F10008003B0076
:1008E800BB173B1720002608F1002708F200F30188
:1008F800F4010030F800F430F7002430F60000303E
:10090800F500F1237108FF3EFA00FF30723DFB004D
:100918007A083B00B5007B08B6003608FB003508AE
:10092800FA00FB36FA0C7A08B3007B08B400B10170
:10093800B201BF172000AA01AB012B082902031D31
:10094800A72C2A082802031CB82C0630FB003030DC
:10095800FA00FA0BAD2CFB0BAD2C00000130200087
:10096800AA070030AB3DA12C3B003B1308007A30AE
:100978002100990023008C0121008C120C110C100D
:100988003030F10071089E04673023009B001E126E
:100998009D171F169E161D160800BB24E224200072
:1009A800911ED22C230019082000AC002C08AD00A1
:1009B8002D08103A031DD22C2520D22C20000C1E05
:1009C80008007C080025B8302000A6000B30A700DE
:1009D8003230A8000030A9007324080022009817BC
:1009E8008B170B1721001114200018151814FF304D
:1009F8009700CE3096000800F10023001D12F22463
:100A0800710823009A009E1C072D0D2523001D1632
:100A180008008B1320001810220098130800803457
:020000040001F9
:04000E00E4FFFFDE2E
:00000001FF
