:020000001928BD
:100008007E14803120007F08F000111C1528220082
:100018001808203A9800CE3020009607FF30973D08
:1000280011107008FF007E1009001A28B701B801E6
:10003800F325FC007E1020006B2C2000A401A501F4
:10004800A601911A38288530F200F20B29280130D0
:100058002000A5070030A63D03302602E83003192A
:10006800250203180800252823001908F200720841
:100078002000A800A501A601911A53288530F20096
:10008800F20B442801302000A5070030A63D0330BC
:100098002602E83003192502031808004028230027
:1000A8001908F20072082000A7002808F039031D7B
:1000B80008002708F039031D08002708F20003305C
:1000C800F235FF3E031D642872352804F3007308D7
:1000D800A8002808F2007208A40728087C06031D57
:1000E8000800A501A601911A8A288530F200F20BB2
:1000F8007B2801302000A5070030A63D03302602EA
:10010800E830031925020318080077282300190886
:10011800F20072082000A800A501A601911AA528DE
:100128008530F200F20B962801302000A507003038
:10013800A63D03302602E8300319250203180800FB
:10014800922823001908F20072082000A700280846
:10015800F039031D08002708F039031D0800270897
:10016800F2000330F235FF3E031DB628723528042D
:10017800F3007308A1002108F2007208A407DB2B22
:10018800A501A601911AD9288530F200F20BCA28D8
:1001980001302000A5070030A63D03302602E830D4
:1001A8000319250203180800C62823001908F200BD
:1001B80072082000A800A501A601911AF42885302C
:1001C800F200F20BE52801302000A5070030A63D1B
:1001D80003302602E8300319250203180800E12835
:1001E80023001908F20072082000A7002808F03937
:1001F800031D08002708F039031D08002708F2002E
:100208000330F235FF3E031D052972352804F3003B
:100218007308A8002808F2007208A4072408031D20
:100228000800A501A601911A2A298530F200F20BCF
:100238001B2901302000A5070030A63D0330260207
:10024800E8300319250203180800172923001908A4
:10025800F20072082000A8002808113A031D0800BF
:100268001030CB252000A4017C080F39F200720859
:10027800A8007C08F2000430F236890B4029720885
:10028800F3007308A7002808CB2520002708CB25F2
:100298007C082000A4020230F2007208A800A7011E
:1002A8002808CB2520002708CB2502302000A402EF
:1002B80038080F39F2007208A8003808F200043034
:1002C800F236890B64297208F3007308A70028081E
:1002D800CB2520002708CB2520003808A4022408B5
:1002E8000F39F2007208A8002408F2000430F23630
:1002F800890B7B297208F3007308A7002808CB250F
:1003080020002708CB2520002408A4021130CB2583
:1003180008002000A501A601911AA3298530F20042
:10032800F20B942901302000A5070030A63D0330C8
:100338002602E83003192502031808009029230033
:100348001908F20072082000A800A501A601911A58
:10035800BE298530F200F20BAF2901302000A50735
:100368000030A63D03302602E830031925020318A1
:100378000800AB2923001908F20072082000A70022
:100388002808F039031D08002708F039031D080064
:100398002708F2000330F235FF3E031DCF297235DE
:1003A8002804F3007308A3002308F2007208A407C6
:1003B800A501A601911AF1298530F200F20BE22974
:1003C80001302000A5070030A63D03302602E830A2
:1003D8000319250203180800DE2923001908F20072
:1003E80072082000A800A501A601911A0C2A8530E0
:1003F800F200F20BFD2901302000A5070030A63DD0
:1004080003302602E8300319250203180800F929E9
:1004180023001908F20072082000A7002808F03904
:10042800031D08002708F039031D08002708F200FB
:100438000330F235FF3E031D1D2A72352804F300F0
:100448007308A0002008F2007208A407A501A601FD
:10045800911A3F2A8530F200F20B302A0130200031
:10046800A5070030A63D03302602E830031925020F
:10047800031808002C2A23001908F200720820002B
:10048800A800A501A601911A5A2A8530F200F20B9C
:100498004B2A01302000A5070030A63D0330260274
:1004A800E8300319250203180800472A2300190811
:1004B800F20072082000A7002808F039031D080080
:1004C8002708F039031D08002708F2000330F23529
:1004D800FF3E031D6B2A72352804F3007308A80039
:1004E8002808F2007208A4072408031D0800A501C3
:1004F800A601911A902A8530F200F20B812A013068
:100508002000A5070030A63D03302602E830031975
:100518002502031808007D2A23001908F200720832
:100528002000A8002808113A031D080023083806EF
:10053800031D08001030CB252000A4017C080F39CA
:10054800F2007208A8007C08F2000430F236890B29
:10055800AA2A7208F3007308A7002808CB252000F0
:100568002708CB257C082000A402A801A701280899
:10057800CB2520002708CB25200024080F39F200BE
:100588007208A8002408F2000430F236890BC92A40
:100598007208F3007308A7002808CB252000270855
:1005A800CB2520002408A4021130CB250800200008
:1005B800A501A601911AF12A8530F200F20BE22A70
:1005C80001302000A5070030A63D03302602E830A0
:1005D8000319250203180800DE2A23001908F2006F
:1005E80072082000A800A501A601911A0C2B8530DD
:1005F800F200F20BFD2A01302000A5070030A63DCD
:1006080003302602E8300319250203180800F92AE6
:1006180023001908F20072082000A7002808F03902
:10062800031D08002708F039031D08002708F200F9
:100638000330F235FF3E031D1D2B72352804F300ED
:100648007308A2002208F2007208A407A501A601F7
:10065800911A3F2B8530F200F20B302B013020002D
:10066800A5070030A63D03302602E830031925020D
:10067800031808002C2B23001908F2007208200028
:10068800A800A501A601911A5A2B8530F200F20B99
:100698004B2B01302000A5070030A63D0330260271
:1006A800E8300319250203180800472B230019080E
:1006B800F20072082000A7002808F039031D08007E
:1006C8002708F039031D08002708F2000330F23527
:1006D800FF3E031D6B2B72352804F3007308A80036
:1006E8002808F2007208A4072408031D0800A501C1
:1006F800A601911A902B8530F200F20B812B013064
:100708002000A5070030A63D03302602E830031973
:100718002502031808007D2B23001908F20072082F
:100728002000A8002808113A031D08002208F2003A
:100738007208B7001030CB252000A4017C080F39BF
:10074800F2007208A8007C08F2000430F236890B27
:10075800AA2B7208F3007308A7002808CB252000ED
:100768002708CB257C082000A402A801A701280897
:10077800CB2520002708CB25200024080F39F200BC
:100788007208A8002408F2000430F236890BC92B3D
:100798007208F3007308A7002808CB252000270853
:1007A800CB2520002408A4021130CB250800200006
:1007B8002108013A0319C428023A03198D290B3A72
:1007C8000319DB2AE82B080008002000A101F41F08
:1007D800FA2BF109F209F309F409F10A0319F20AEB
:1007E8000319F30A0319F40AA101A10AF81F0B2C33
:1007F800F509F609F709F809F50A0319F60A0319BC
:10080800F70A0319F80A0130F9007908A10600303F
:10081800A5000030A4000030A3000030A200740836
:100828007304720471040319542CA001A00AF41B68
:10083800292C0130F135F20DF30DF40D890B1E2C26
:100848000130F9007908A0071B2C0130A235A30D4F
:10085800A40DA50D890B2A2C74087802031D3E2CC3
:1008680073087702031D3E2C72087602031D3E2C86
:1008780071087502031C492C7108F5027208F63BD1
:100888007308F73B7408F83B22140130F436F30C74
:10089800F20CF10C890B4A2C0130A002031D292C03
:1008A80021080319622CA209A309A409A509A20A0F
:1008B8000319A30A0319A40A0319A50A2508F400B1
:1008C8002408F3002308F2002208F1000800103081
:1008D8002000B3000030B4008030AF000030B0001A
:1008E8001630B1000030B2000A30B5000030B60052
:1008F800A225BB252000911E972C23001908200053
:10090800AC002C08AE002E08103A031D8C2C2120B8
:10091800813020002E02031C972C2E087C06031918
:10092800972C2E084425D030F1000730F2002F30E4
:100938002000AC002C08F3000430AD002D08F400B2
:10094800002592302000AF000030B000D030F10018
:100958000730F2002F30AC002C08F3000430AD0053
:100968002D08F4007D257D2C3B00BB173B1720008C
:100978002608F1002708F200F301F4010030F8001E
:10098800F430F7002430F6000030F500E923710850
:10099800FF3EFA00FF30723DFB007A083B00B500CD
:1009A8007B08B6003608FB003508FA00FB36FA0C5F
:1009B8007A08B3007B08B400B101B201BF17200068
:1009C800AA01AB012B082902031DEC2C2A082802D6
:1009D800031CFD2C0630FB003030FA00FA0BF22C19
:1009E800FB0BF22C000001302000AA070030AB3DC1
:1009F800E62C3B003B1308008B13230015137208E9
:100A08009201920771089101910715161515553035
:100A18009600AA30960095140000000023001511D6
:100A2800151295161515F601730886008701403FC3
:100A38009300413F94000230F5007508F3077608EB
:100A480074060319382D55309600AA30960095146F
:100A5800000000000130230091070030923D013072
:100A6800F5007508F607182D951255309600AA302E
:100A78009600951400000000230015118B1708003C
:100A8800ED25A0302000A6000F30A7006430A80094
:100A98000030A900B824F025AC302000A6000D30A5
:100AA800A7006430A8000030A900B824ED25A030C4
:100AB8002000A6000F30A7006430A8000030A9006D
:100AC800B824F02594302000A6001130A700643027
:100AD800A8000030A900B824ED25A0302000A60009
:100AE8000F30A7006430A8000030A900B824F02512
:100AF80008002300151372089201920771089101EA
:100B08009107F6017408760203180800151400000E
:100B1800000073088600870123001308C03F1408EB
:100B2800C13F0230F5007508F30701309107003026
:100B3800923D0130F5007508F607862D7A302100C0
:100B4800990023008C0121008C120C110C1020003C
:100B58008C163030F100710821009E0467302300A4
:100B68009B001E129D171F169E161D1608002000BA
:100B78000C1E08007C08CB25B8302000A6000B30DE
:100B8800A7003230A8000030A900B8240800F100FE
:100B980023001D12D925710823009A009E1CD22D0E
:100BA800E72523001D1619080800220098178B173F
:100BB8000B1721001114200018151814FF30970086
:100BC800CE30960008008B132000181022009813CE
:100BD800080020008C12080020008C1608008034C1
:020000040001F9
:04000E00E4FFFFDE2E
:00000001FF
