:020000001928BD
:100008007E14803120007F08F000111C1528220082
:100018001808203A9800CE3020009607FF30973D08
:1000280011107008FF007E1009001A284B30840058
:10003800003085001C308F26A030840000308500F9
:1000480020308F267E1020009B2E2000D1016530A5
:100058000926003A031D080066300926003A031DE8
:10006800080020006508F039031D08006608F0390B
:10007800031D08006608F7000330F735FF3E031D2F
:10008800412877356504F8007808E5006508F70029
:100098007708D1076508F700F80156087806031DA8
:1000A800572855087706031D080065300926003AC9
:1000B800031D080066300926003A031D08002000C9
:1000C8006508F039031D08006608F039031D0800AB
:1000D8006608F7000330F735FF3E031D6F287735B4
:1000E8006504F8007808C0004008F7007708D107D1
:1000F800F32A65300926003A031D080066300926F0
:10010800003A031D080020006508F039031D0800A7
:100118006608F039031D08006608F7000330F73554
:10012800FF3E031D932877356504F8007808E5003D
:100138006508F7007708D1075108031D08006530E6
:100148000926003A031D080020006508113A031D1E
:1001580008007A260230E72520005208E725852680
:10016800080065300926003A031D08006630092694
:10017800003A031D080020006508F039031D080037
:100188006608F039031D08006608F7000330F735E4
:10019800FF3E031DCB2877356504F8007808C100B9
:1001A8004108F7007708D10765300926003A031D92
:1001B800080066300926003A031D0800200065087B
:1001C800F039031D08006608F039031D08006608A9
:1001D800F7000330F735FF3E031DEE287735650439
:1001E800F8007808C2004208F7007708D1076530A0
:1001F8000926003A031D080066300926003A031D47
:10020800080020006508F039031D08006608F03969
:10021800031D08006608F7000330F735FF3E031D8D
:10022800112977356504F8007808E5006508F700B6
:100238007708D1075108031D080065300926003AE0
:10024800031D080020006508113A031D0800410835
:100258005206031D08007A260030E725852620006F
:100268004208F700F8017708D5007808D600D030A2
:10027800F1000730F2005530F7007708F300083036
:10028800F8007808F400D324080065300926003AFD
:10029800031D080066300926003A031D08002000E7
:1002A8006508F039031D08006608F039031D0800C9
:1002B8006608F7000330F735FF3E031D5F297735E1
:1002C8006504F8007808C7004708F7007708D107E1
:1002D8004708F7007708C50065300926003A031D6E
:1002E800080066300926003A031D0800200065084A
:1002F800F039031D08006608F039031D0800660878
:10030800F7000330F735FF3E031D8629773565046E
:10031800F8007808C7004708F7007708D1074708AA
:10032800F7007708C60065300926003A031D080063
:1003380066300926003A031D080020006508F039D8
:10034800031D08006608F039031D08006608F70059
:100358000330F735FF3E031DAD2977356504F800F6
:100368007808E5006508F7007708D1075108031DEC
:10037800080065300926003A031D080020006508BA
:10038800113A031D08004608F201F2074508F10179
:10039800F1072030F7007708F3001030F8007808EC
:1003A800F400C2257A260530E7252030F7007708C3
:1003B8002000C300C401203044020318F529430873
:1003C800860087010108E7250130F700770820003B
:1003D800C3070130F7007708C40720304402031C24
:1003E800E3298526080065300926003A031D080020
:1003F80066300926003A031D080020006508F03918
:10040800031D08006608F039031D08006608F70098
:100418000330F735FF3E031D0D2A77356504F800D4
:100428007808C7004708F7007708D1074708F7009A
:100438007708C50065300926003A031D08006630B4
:100448000926003A031D080020006508F039031D3D
:1004580008006608F039031D08006608F700033035
:10046800F735FF3E031D342A77356504F800780810
:10047800C7004708F7007708D1074708F70077084B
:10048800C6002030F7007708C300C40120304402BA
:100498000318842A65300926003A031D08006630CF
:1004A8000926003A031D080020006508F039031DDD
:1004B80008006608F039031D08006608F7000330D5
:1004C800F735FF3E031D642A77356504F800780880
:1004D800C7004708F7007708D1074708F70043081F
:1004E80086008701770881000130F7007708C30785
:1004F8000130F7007708C40720304402031C4E2A55
:1005080065300926003A031D080066300926003ABE
:10051800031D080020006508F039031D080066085F
:10052800F039031D08006608F7000330F735FF3E71
:10053800031D9A2A77356504F8007808E5006508F0
:10054800F7007708D1075108031D08006530092610
:10055800003A031D080020006508113A031D080031
:100568004608F201F2074508F101F1072030F700CB
:100578007708F3001030F8007808F400D324E02A54
:10058800D030F1000730F2005530F7007708F3005B
:100598000830F8007808F400C225EE2AE030F100AF
:1005A8000730F200A030F7007708F3001030F800A9
:1005B8007808F400C225EE2A20004608073A0319F5
:1005C800E62AEE2A4508D03A0319C42A303A031914
:1005D800D22AEE2A7A260030E72585260800200050
:1005E8004008013A03197D28023A0319B528073A49
:1005F80003194929023A0319F729032B08000800AF
:100608002000A101F41F152BF109F209F309F409DF
:10061800F10A0319F20A0319F30A0319F40AA101EA
:10062800A10AF81F262BF509F609F709F809F50AB2
:100638000319F60A0319F70A0319F80A0130F90031
:100648007908A1060030A5000030A4000030A300FE
:100658000030A200740873047204710403196F2B2C
:10066800A001A00AF41B442B0130F135F20DF30D63
:10067800F40D890B392B0130F9007908A007362BC6
:100688000130A235A30DA40DA50D890B452B7408C7
:100698007802031D592B73087702031D592B720822
:1006A8007602031D592B71087502031C642B71080F
:1006B800F5027208F63B7308F73B7408F83B2214FE
:1006C8000130F436F30CF20CF10C890B652B013078
:1006D800A002031D442B210803197D2BA209A3099D
:1006E800A409A509A20A0319A30A0319A40A03194C
:1006F800A50A2508F4002408F3002308F2002208BC
:10070800F1000800D030F1000730F2005530F70052
:100718007708F3000830F8007808F400C2253F3065
:1007280020005606031D9A2BFF305506031DD42BB7
:100738001030D9000030DA008030D5000030D60003
:10074800D701D8010A30DD000030DE00F430DF00C8
:100758000130E0004030E3001F30E4000130DB00EE
:100768000030DC00E830E1000330E200D030F10076
:100778000730F2005530F7007708F3000830F8002A
:100788007808F400D324E030F1000730F200A030FC
:10079800F7007708F3001030F8007808F400D32445
:1007A800E030F1000730F200A030F7007708F300DE
:1007B8001030F8007808F400C225080026267208D0
:1007C8002000AD01AD077108AC01AC072D0860022F
:1007D800031DF02B2C085F0203182D2C62082D0234
:1007E800031DF82B61082C0203182D2C64084E02F7
:1007F800031D002C63084D020318072C0130CD0798
:100808000030CE3D352C0230553E8600870116005B
:1008180001040319172C4C085802031D152C4B080A
:100828005702031C2B2CA026200055085E26A0305A
:100838002000A6000F30A7003230A8000030A90021
:100848008B2401302000CB070030CC3D352CA3266B
:10085800352CA3262000CD01CE01CB01CC010030E0
:10086800080001300800F50075087F39F100F20131
:100878007108F6007208F700F801103078020318C2
:1008880008007835A03E86008701403FF100413FCF
:10089800F2007F307105F30000307205F40074082F
:1008A8007304031D612C7835A03E86008701760805
:1008B800810441317708810408007835A03E86001C
:1008C8008701403FF100413FF20080307105F3009D
:1008D8003F307205F40074087304031D862C7708F2
:1008E800F2007608F1000730F135F20D890B782C0B
:1008F8007835A03E8600870171088104413172086D
:10090800810408000130F1007108F807412C3B0010
:10091800BB173B1720002608F1002708F200F30157
:10092800F4010030F800F430F7002430F60000300D
:10093800F50004237108FF3EFA00FF30723DFB000A
:100948007A083B00B5007B08B6003608FB0035087E
:10095800FA00FB36FA0C7A08B3007B08B400B10140
:10096800B201BF172000AA01AB012B082902031D01
:10097800BF2C2A082802031CD02C0630FB0030307C
:10098800FA00FA0BC52CFB0BC52C00000130200027
:10099800AA070030AB3DB92C3B003B1308008B1372
:1009A80072082300920192077108910191071513AB
:1009B8001516151555309600AA30960095140000A6
:1009C8000000230015117208920192077108910125
:1009D80091071513151215159516F601F60A7608DE
:1009E8007402031C172D730886008701403F93008B
:1009F800413F94000230F5007508F3077608740645
:100A08000319951255309600AA30960095140000E7
:100A180000000130F5007508230091070130F5004A
:100A28007508F607F32C15118B1708002000911A8A
:100A38001F2D00300800230019082000C8004808AE
:100A4800CA004A08103A031D2B2D2920572D813042
:100A580020004A02031C572D4A08C800C90156083D
:100A68004906031D392D550848060319572D4A080C
:100A780054060319402DD3014A08C8004808D40079
:100A88000130C8004808D3075308C800C9014908FD
:100A98005C02031D512D48085B020318572D4A08B4
:100AA80091252000D40101300800F50110307502AD
:100AB80003188F2D7535A03E86008701403FF10051
:100AC800413FF2007F307105F30000307205F400F9
:100AD80074087304031D722D753508007535A03E22
:100AE80086008701403FF100413FF20080307105E8
:100AF800F3003F307205F40074087304031D872D5A
:100B08000314750D08000130F1007108F507103065
:100B18007502031C5E2D75350800FC007C0837241F
:100B2800E030F1000730F200A0302000AC002C08C3
:100B3800F3001030AD002D08F400D324E830200075
:100B4800A6000330A7003230A8000030A9008B248B
:100B580059252000AC00AD012D085A02031DB62D01
:100B68002C085902031808006430A6000030A700BA
:100B7800D030A8000730A9008B24080023001513E3
:100B8800720892019207710891019107F6017408A1
:100B98007602031808001514000000007308860088
:100BA800870123001308C03F1408C13F0230F50035
:100BB8007508F307013091070030923D0130F500C8
:100BC8007508F607CB2DF40074080F39F200720887
:100BD8002000E5007408F2000430F236890BF12D8C
:100BE8007208F3007308E60065085E268530F20097
:100BF800F20BFC2D200066085E268530F200F20B11
:100C0800032E74082000D1020800F2002000CF0152
:100C1800D001911A1C2E0130CF070030D03D27306B
:100C28005002103003194F02031C0D2E013008002A
:100C380023001908F10072088600870171088100F5
:100C48000030080021001D0883390C389D001D1450
:100C58000730F300F30B2E2E003221009D149D184F
:100C6800332E1C08F4001B08F3000630F436F30C8E
:100C7800890B3A2E7308F1007408F20008007A30E4
:100C88002100990023008C0121008C120C110C10FA
:100C980020008C1623000C163030F100710821005A
:100CA8009E04673023009B001E129D171F169E1678
:100CB8001D160800F10023001D126C267108230080
:100CC8009A009E1C652E952623001D1619080800FB
:100CD800220098178B170B172100111420001815E4
:100CE8001814FF309700CE309600080010305E26AA
:100CF8008530F500F50B7E2E2000D1015508E7253B
:100D0800080020005108E72511305E268530F500DF
:100D1800F50B8C2E0800640080010131890B902EA0
:100D280000348B1320001810220098130800432663
:100D380086231A25E2239D2E20008C12080020000D
:040D48008C160800FD
:020000040001F9
:04000E00E4FFFFDE2E
:00000001FF
