:0400000000001528BF
:100008007E14803120007F08F00022001808203A72
:1000180098003230200095020B117008FF007E1006
:1000280009001628FC015C3084000030850012307D
:10003800E424A0308400003085003230E4247E10AF
:100048002000D02C2000E6017C307224003A031DE9
:1000580008006D307224003A031D08007C08F0394E
:10006800031D080020006D08F039031D08006D0805
:10007800A3000330A335FF3E031D3E2823357C042F
:10008800A4002408FC007C08A3002308E60721003C
:1000980040087C06031D08007C307224003A031DCA
:1000A80008006D307224003A031D08007C08F039FE
:1000B800031D080020006D08F039031D08006D08B5
:1000C800A3000330A335FF3E031D662823357C04B7
:1000D800A4002408C5004508A3002308E607322B1E
:1000E8007C307224003A031D08006D307224003AF7
:1000F800031D08007C08F039031D080020006D0866
:10010800F039031D08006D08A3000330A335FF3E36
:10011800031D8A2823357C04A4002408FC007C08DD
:10012800A3002308E6076608031D08007C30722434
:10013800003A031D08007C08113A031D0800DC245E
:100148000230902420006A089024EA2408007C30B9
:100158007224003A031D08006D307224003A031D12
:1001680008007C08F039031D080020006D08F039EC
:10017800031D08006D08A3000330A335FF3E031DCF
:10018800C12823357C04A4002408C6004608A3001F
:100198002308E6077C307224003A031D08006D30FE
:1001A8007224003A031D08007C08F039031D08007A
:1001B80020006D08F039031D08006D08A300033006
:1001C800A335FF3E031DE42823357C04A40024083E
:1001D800C7004708A3002308E6077C307224003ACA
:1001E800031D08006D307224003A031D08007C08C6
:1001F800F039031D080020006D08F039031D0800C0
:100208006D08A3000330A335FF3E031D07292335DE
:100218007C04A4002408FC007C08A3002308E6074B
:100228006608031D08007C307224003A031D08008C
:100238007C08113A031D0800200046086A06031DC1
:100248000800DC2400309024EA2420004708A3009A
:10025800A40123082100C000200024082100C100B7
:10026800F030F1000730F200C0302000A30023086E
:10027800F3000930A4002408F400A82608007C3004
:100288007224003A031D08006D307224003A031DE1
:1002980008007C08F039031D080020006D08F039BB
:1002A800031D08006D08A3000330A335FF3E031D9E
:1002B800592923357C04A4002408CC004C08A30049
:1002C8002308E6074C08A3002308CA007C307224E0
:1002D800003A031D08006D307224003A031D08001F
:1002E8007C08F039031D080020006D08F039031D53
:1002F80008006D08A3000330A335FF3E031D8029C5
:1003080023357C04A4002408CC004C08A30023084F
:10031800E6074C08A3002308CB007C307224003A7F
:10032800031D08006D307224003A031D08007C0884
:10033800F039031D080020006D08F039031D08007E
:100348006D08A3000330A335FF3E031DA7292335FD
:100358007C04A4002408FC007C08A3002308E6070A
:100368006608031D08007C307224003A031D08004B
:100378007C08113A031D080020004B08F201F2071F
:100388004A08F101F1072530A3002308F3001030D3
:10039800A4002408F4008427DC24053090242530A8
:1003A8002000A3002308C800C9012030490203180F
:1003B800EF294808860087010108902401302000B1
:1003C800A3002308C8070130A3002308C907203069
:1003D8004902031CDD29EA2408007C307224003A13
:1003E800031D08006D307224003A031D08007C08C4
:1003F800F039031D080020006D08F039031D0800BE
:100408006D08A3000330A335FF3E031D072A2335DB
:100418007C04A4002408CC004C08A3002308E607A9
:100428004C08A3002308CA007C307224003A031D3C
:1004380008006D307224003A031D08007C08F0396A
:10044800031D080020006D08F039031D08006D0821
:10045800A3000330A335FF3E031D2E2A23357C0459
:10046800A4002408CC004C08A3002308E6074C0885
:10047800A3002308CB002530A3002308C800C90126
:100488002030490203187E2A7C307224003A031D6A
:1004980008006D307224003A031D08007C08F0390A
:1004A800031D080020006D08F039031D08006D08C1
:1004B800A3000330A335FF3E031D5E2A23357C04C9
:1004C800A4002408CC004C08A3002308E6074C0825
:1004D800A300480886008701230881000130A30093
:1004E8002308C8070130A3002308C90720304902A0
:1004F800031C482A7C307224003A031D08006D3022
:100508007224003A031D08007C08F039031D080016
:1005180020006D08F039031D08006D08A3000330A2
:10052800A335FF3E031D942A23357C04A400240828
:10053800FC007C08A3002308E6076608031D0800E2
:100548007C307224003A031D08007C08113A031D10
:10055800080020004B08F201F2074A08F101F107F0
:100568002530A3002308F3001030A4002408F40069
:10057800A826DC2AF030F1000730F200C030200055
:10058800A3002308F3000930A4002408F4008427FA
:10059800EA2AE030F1000730F200A0302000A30082
:1005A8002308F3001030A4002408F4008427EA2A62
:1005B80020004B08073A0319E22AEA2A4A08E03AD7
:1005C8000319CD2A103A0319BE2AEA2ADC2400307E
:1005D8009024EA2408007C307224003A031D0800A5
:1005E8006D307224003A031D08007C08F039031DA1
:1005F800080020006D08F039031D08006D08A300ED
:100608000330A335FF3E031D052B23357C04A400CE
:100618002408FC007C08A3002308E6076608031DDD
:1006280008007C307224003A031D08007C08113A47
:10063800031D08004630F1008530F2000630200026
:10064800A3002308F300E830F400FD30F500F601BC
:10065800A927DC2400309024EA240800200045085B
:10066800013A03197428023A0319AB28073A031907
:100678004329023A0319F129013A0319EF2A452BB4
:1006880008000800CD2772082000A301A3077108FD
:10069800A201A207230821004D02031D572B2000A9
:1006A800220821004C0203185A2B51242000230849
:1006B80021004B02031D642B2000220821004A025E
:1006C8000318C82B4D0820002302031D6F2B21009F
:1006D8004C08200022020318C82B6A08031D792B36
:1006E8001508A0002008EA00712B21004F082000FF
:1006F8006502031D832B21004E08200064020318A5
:100708008A2B0130E4070030E53D08000230C03E86
:10071800860087011600010403199D2B6308210038
:100728004302031D9B2B2000620821004202031C88
:10073800C62B200063086204031DBD2BF624263057
:10074800F1008530F20010302000A0002008F300EE
:10075800B830F4000B30F5000230C03E8600870147
:1007680016000104003003190130A1002108F60029
:10077800A92721004008EF2601302000E2070030B9
:10078800E33D08008C16080021008C16430842043B
:10079800031DD42B2000630862040319D42BF02412
:1007A8002000E401E501E201E30108002000D40093
:1007B8005408AF25E030F1000730F200A0302000E7
:1007C800D2005208F3001030D3005308F400A826D2
:1007D80001302100C4020030C53BF030F100073081
:1007E800F200C0302000D2005208F3000930D300D4
:1007F8005308F400A8260030F1008530F2001330C9
:100808002000D2005208F3006030F400EA30F5000E
:10081800F601A927210045084404031D162CFB24D2
:1008280058250800210049082000D601D6072100D4
:1008380048082000D501D5075608550403190800B3
:100848000130D5020030D63BFB242000D7013230DE
:10085800570203183A2C2927C12401302000D2005E
:100868005208D70732305702031C2F2C003056028B
:100878001E30031955020318432C21008C16200042
:10088800D801323058020318202C2927C1240130FE
:100898002000D2005208D807452CFB248530F100EF
:1008A8001E30F200AA24F601C83076020318652C1F
:1008B800C1240130F5007508F607C8307602031C1C
:1008C8005C2C21008C16F701C83077020318512CD4
:1008D800C1240130F5007508F707682CF2002000E4
:1008E800DC01DD01911A852C0130DC070030DD3D8B
:1008F80075305D02303003195C02031C762C013020
:10090800080023001908AA3AF10072088600870136
:1009180071088100003008002000A20022080F3969
:10092800A0002008FC002208A0000430A036890B93
:100938009A2C2008A1002108ED007C08EF26200051
:100948006D08EF2620002208E60208003B00BB17CE
:100958003B177208B601B6077108B501B5077208EA
:10096800F4007108F300F436F30C7308B30074084C
:10097800B400B101B201BF170800F101F201013062
:1009880072021D30031971020318080000000130BB
:10099800F1070030F23DC32C5A275626210045089E
:1009A8004404031DD82C5825032646232927D82C70
:1009B8001030EF262000E6012100400890240800AE
:1009C800640080010131890BE52C003420006608A1
:1009D80090241130EF2608003B003B13200018102C
:1009E8001110080021008C1220008C16080021002C
:1009F8008C1220008C1208006234F0340034FA346F
:100A0800003400340034003400340034003400343E
:100A18006F3477347A34593400340034CC345E344B
:100A28007A345934CC345E346B346A34003400344C
:100A38006F34773470349F340034003470349F340A
:100A4800EA34EE34A0340F34DB341134D5341434A2
:100A58000034193440341F34AA34293480343E34E5
:100A680000347D34E3348A3440349C349234B234D4
:100A78005534D0340034FA340034003400340034AF
:100A880000340034CC345E34B8344F3467342F34F7
:100A9800B9343B3434343534DC3427346F34773468
:100AA80070349F34EA34EE342000D001D101043090
:100AB800C03E8600870116000104031D080029278F
:100AC8002000911E732D23001908AA3A2000CD009A
:100AD8004D08CF004F08103A031D732D2620013012
:100AE8002000D0070030D13DC1242000510821004A
:100AF8005102031D832D20005008210050020318C5
:100B08009B2D2000D001D10121008C164008EF2632
:100B18005230F1008530F20003302000CD004D083E
:100B2800F3001030F4002730F500F601A927210062
:100B38005008CE3E2000CD00FF302100513D20005E
:100B4800CE0051084E06031DAB2D50084D06031D5F
:100B58005B2DFB245B2DF50075087F39F100F20150
:100B68007108F6007208F700F801103078020318CF
:100B780008007835A03E86008701403FF100413FDC
:100B8800F2007F307105F30000307205F40074083C
:100B98007304031DD92D7835A03E86008701760899
:100BA800810441317708810408007835A03E860029
:100BB8008701403FF100413FF20080307105F300AA
:100BC8003F307205F40074087304031DFE2D770886
:100BD800F2007608F1000730F135F20D890BF02D9F
:100BE8007835A03E8600870171088104413172087A
:100BF800810408000130F1007108F807B92D2000C0
:100C0800911E080023001908AA3A2000D9005908A3
:100C1800DB005B08103A031D132E262008008130E4
:100C280020005B02031C08005B08D900DA012100E0
:100C3800410820005A06031D252E210040082000E7
:100C480059060319080080302100400641040319A1
:100C5800080020005B086C0603199118EB019A0143
:100C680091105B08D9005908EC000130D9005908E7
:100C7800EB076B08D900DA015A0821004702031D67
:100C8800492E2000590821004602031808002300B5
:100C98001D1220005B08DA232000EC01230019084C
:100CA8001D160800F030F1000730F200C030F700E0
:100CB8007708F3000930F8007808F40084273F30FB
:100CC80021004106031D6A2EFF304006031D9A2E9F
:100CD8008030C0000030C100C201C3010130C4002F
:100CE8000030C5000230C6000030C700F430CA002A
:100CF8000130CB00CE01CF01F030F1000730F20017
:100D0800C030F7007708F3000930F8007808F400DD
:100D1800A826E030F1000730F200A030F70077088D
:100D2800F3001030F8007808F400A826E030F1004D
:100D38000730F200A030F7007708F3001030F80011
:100D48007808F400842708008B13720823009201A6
:100D5800920771089101910715131516151555304D
:100D68009600AA3096009514000000002300151183
:100D780072089201920771089101910715131512D3
:100D880015159516F601F60A76087402031CEC2E62
:100D9800730886008701403F9300413F940002306A
:100DA800F5007508F307760874060319951255308F
:100DB8009600AA3096009514000000000130F50056
:100DC8007508230091070130F5007508F607C82E4D
:100DD80015118B170800F900AA30F8007808F906F1
:100DE800C12423001D12FA01FB0100307B0264308C
:100DF80003197A020318152F20008C18152FC12407
:100E080063307A067B04031D0A2F51240130FA0748
:100E18000030FB3D00307B02643003197A02031C6A
:100E2800002F22009817200095010B158B167908C2
:100E380023009A009E1C1E2F8B1222009813230059
:100E48001D161908C124C12408002000111C08001F
:100E580067086802031C372F69080319352FE80152
:100E6800372FF024080020006808F500F601F53552
:100E7800F60D5E08750784005F08763D8500003F23
:100E8800F100013FF200AA2420006009F500610981
:100E9800F600F50A0319F60A750896007608970011
:100EA8000130F5007508E807111008007A302100B4
:100EB800990023008C0121000C110C1023000C1642
:100EC8003030F300730821009E04673023009B0034
:100ED8001E129D171F169E161D168B1721009512A0
:100EE80030302000980403309C0478309C041C1592
:100EF80021001D0883390C389D001D14C1240800E9
:100F08002300151372089201920771089101910745
:100F1800F601740876020318080015140000000092
:100F280073088600870123001308C03F1408C13FD7
:100F38000230F5007508F307013091070030923D43
:100F48000130F5007508F6078D2F72082000DF01C3
:100F5800DF077108DE01DE077308F7007708E7008E
:100F6800E8017608F7007708E9007508E101E1076C
:100F78007408E001E0076009F7006109F800F70A62
:100F88000319F80A770896007808970011141814BE
:100F9800080021009D149D18CF2F1C08F4001B0881
:100FA800F3000630F436F30C890BD62F7308F100E2
:060FB8007408F2000800BD
:020000040001F9
:04000E00E4FFFFDE2E
:00000001FF
