:020000001D28B9
:100008007E14803120007F08F000111C192822007E
:100018001808203A980020000C08203A8C00CE30AE
:1000280020009607FF30973D11107008FF007E10E2
:1000380009001E287E102000212856200230F400D6
:100048000430F300BA30F200F20B2828F30B28280A
:10005800F40B28280000AA3041200230F4000430B4
:10006800F300BA30F200F20B3728F30B3728F40B01
:1000780037280000B33041202228F10022009817C9
:100088006720363023009B001E129D171F169E16F0
:1000980071089A009E1C4E28732021000C10220023
:1000A800981308007A302100990023008C01210060
:1000B8008C120C110C1023000C163030F100710852
:1000C80021009E0408008B170B1721001114200033
:1000D80018151814FF309700CE30960008008B13BF
:0600E800200018100800C2
:020000040001F9
:04000E00E4FFFFDE2E
:00000001FF
