:0400000000001728BD
:100008007E14803120007F08F0000B1D1328220089
:100018001808203A98003230200095020B11700819
:10002800FF007E1009001828FC015E3084000030B3
:1000380085001230E526A03084000030850032307B
:10004800E5267E102000C72E2000E8017C306326BC
:10005800003A031D08006F306326003A031D0800AC
:100068007C08F039031D080020006F08F039031DD3
:1000780008006F08A5000330A535FF3E031D402882
:1000880025357C04A6002608FC007C08A500250868
:10009800E807210040087C06031D08007C30632621
:1000A800003A031D08006F306326003A031D08005C
:1000B8007C08F039031D080020006F08F039031D83
:1000C80008006F08A5000330A535FF3E031D68280A
:1000D80025357C04A6002608C7004708A500250882
:1000E800E807302B7C306326003A031D08006F3088
:1000F8006326003A031D08007C08F039031D080038
:1001080020006F08F039031D08006F08A5000330B0
:10011800A535FF3E031D8C2825357C04A60026083E
:10012800FC007C08A5002508E8076808031D0800EE
:100138007C306326003A031D08007C08113A031D31
:100148000800D1270230412620006C084126D3261A
:1001580008007C306326003A031D08006F306326D0
:10016800003A031D08007C08F039031D0800200030
:100178006F08F039031D08006F08A5000330A53586
:10018800FF3E031DC32825357C04A6002608C800A9
:100198004808A5002508E8077C306326003A031DB7
:1001A80008006F306326003A031D08007C08F03908
:1001B800031D080020006F08F039031D08006F08B0
:1001C800A5000330A535FF3E031DE62825357C0430
:1001D800A6002608C9004908A5002508E8077C30BC
:1001E8006326003A031D08006F306326003A031D9A
:1001F80008007C08F039031D080020006F08F0395A
:10020800031D08006F08A5000330A535FF3E031D38
:10021800092925357C04A6002608FC007C08A500D1
:100228002508E8076808031D08007C306326003AA3
:10023800031D08007C08113A031D08002000480827
:100248006C06031D0800D12700304126D326003054
:10025800200049042100C0000230C100F030F10044
:100268000730F200C0302000A5002508F30009304F
:10027800A6002608F400C22508007C306326003A50
:10028800031D08006F306326003A031D08007C0830
:10029800F039031D080020006F08F039031D08001D
:1002A8006F08A5000330A535FF3E031D57292535E6
:1002B8007C04A6002608CE004E08A5002508E807FD
:1002C8004E08A5002508CC007C306326003A031DA3
:1002D80008006F306326003A031D08007C08F039D7
:1002E800031D080020006F08F039031D08006F087F
:1002F800A5000330A535FF3E031D7E2925357C0466
:10030800A6002608CE004E08A5002508E8074E08D6
:10031800A5002508CD007C306326003A031D08009F
:100328006F306326003A031D08007C08F039031D6E
:10033800080020006F08F039031D08006F08A500A9
:100348000330A535FF3E031DA52925357C04A600ED
:100358002608FC007C08A5002508E8076808031D96
:1003680008007C306326003A031D08007C08113A17
:10037800031D080020004D08F201F2074C08F101A6
:10038800F1072730A5002508F3001030A60026083D
:10039800F4006527D1270530412627302000A50025
:1003A8002508CA00CB0120304B020318ED294A0862
:1003B800860087010108412601302000A500250894
:1003C800CA070130A5002508CB0720304B02031CC3
:1003D800DB29D32608007C306326003A031D080079
:1003E8006F306326003A031D08007C08F039031DAE
:1003F800080020006F08F039031D08006F08A500E9
:100408000330A535FF3E031D052A25357C04A600CB
:100418002608CE004E08A5002508E8074E08A500C6
:100428002508CC007C306326003A031D08006F3095
:100438006326003A031D08007C08F039031D0800F4
:1004480020006F08F039031D08006F08A50003306D
:10045800A535FF3E031D2C2A25357C04A600260859
:10046800CE004E08A5002508E8074E08A500250877
:10047800CD002730A5002508CA00CB0120304B024B
:1004880003187C2A7C306326003A031D08006F306D
:100498006326003A031D08007C08F039031D080094
:1004A80020006F08F039031D08006F08A50003300D
:1004B800A535FF3E031D5C2A25357C04A6002608C9
:1004C800CE004E08A5002508E8074E08A5004A08F2
:1004D80086008701250881000130A5002508CA0784
:1004E8000130A5002508CB0720304B02031C462A03
:1004F8007C306326003A031D08006F306326003AFB
:10050800031D08007C08F039031D080020006F084F
:10051800F039031D08006F08A5000330A535FF3E1C
:10052800031D922A25357C04A6002608FC007C08B9
:10053800A5002508E8076808031D08007C30632625
:10054800003A031D08007C08113A031D080020002A
:100558004D08F201F2074C08F101F1072730A50018
:100568002508F3001030A6002608F400C225DA2A70
:10057800F030F1000730F200C0302000A500250857
:10058800F3000930A6002608F4006527E82AE030C1
:10059800F1000730F200A0302000A5002508F30084
:1005A8001030A6002608F4006527E82A20004D0828
:1005B800073A0319E02AE82A4C08E03A0319CB2A3B
:1005C800103A0319BC2AE82AD12700304126D3263D
:1005D80008007C306326003A031D08006F3063264C
:1005E800003A031D08007C08F039031D08002000AC
:1005F8006F08F039031D08006F08A5000330A53502
:10060800FF3E031D032B25357C04A6002608FC00AD
:100618007C08A5002508E8076808031D08007C3049
:100628006326003A031D08007C08113A031D0800E0
:100638002030F1008730F20006302000A5002508A0
:10064800F300E830F400FD30F500F6018A27D127E1
:1006580000304126D326080020004708013A031934
:100668007628023A0319AD28073A03194129023AB4
:100678000319EF29013A0319ED2A432B0800080052
:10068800802672082000A401A4077108A301A3070B
:10069800240821004D02031D552B200023082100AA
:1006A8004C020318582BB4262000240821004B02C2
:1006B800031D622B2000230821004A020318C52BC2
:1006C8004D0820002402031D6D2B21004C0820003A
:1006D80023020318C52B6C08031D772B1508FA0095
:1006E8007A08EC006F2B21004F0820006702031DD9
:1006F800812B21004E08200066020318882B013048
:10070800E6070030E73D08000230C03E860087015A
:100718001600010403199B2B650821004302031DE1
:10072800992B2000640821004202031CC32B2000DF
:1007380065086404031DBA2BF0260030F1008730E9
:10074800F2001030FA007A08F300B830F4000B30E9
:10075800F5000230C03E8600870116000104003013
:1007680003190130FB007B08F6008A2721004008A6
:10077800092601302000E4070030E53D0800F9268D
:100788000800F926210043084204031DD12B20004C
:10079800650864040319D12BEB262000E601E70164
:1007A800E401E50108002000D60056086E25E03077
:1007B800F1000730F200A0302000D4005408F30004
:1007C8001030D5005508F400C22501302100C402BC
:1007D8000030C53BF030F1000730F200C030200097
:1007E800D4005408F3000930D5005508F400C22598
:1007F8003230F1008730F200F301F30A6030F40080
:10080800EA30F500F6018A27210045084404031D53
:10081800102CF026BC240800210049082000D8012B
:10082800D807210048082000D701D70758085704DF
:10083800031908000130D7020030D83BF026200009
:10084800D9013230590203183D2C342706302000D4
:10085800D5003030D400D40B2F2CD50B2F2C000012
:1008680001302000D4005408D90732305902031C43
:10087800292C003058021E30031957020318452C42
:10088800F9262000DA0132305A0203181A2C3427CC
:1008980006302000D5003030D400D40B512CD50BB5
:1008A800512C000001302000D4005408DA07472CEE
:1008B800F030F1000730F200C030F7007708F3009D
:1008C8000930F8007808F40065273F302100410618
:1008D800031D702CFF304006031DAE2C0230C400EF
:1008E8000030C5008030C0000030C100C201C30123
:1008F8006430C8000030C900F430CA000130CB00B1
:100908004030CE001F30CF000230C6000030C70094
:10091800E830CC000330CD00B830D0000B30D10027
:10092800F030F1000730F200C030F7007708F3002C
:100938000930F8007808F400C225E030F1000730EB
:10094800F200A030F7007708F3001030F8007808BC
:10095800F400C225E030F1000730F200A030F700C3
:100968007708F3001030F8007808F40065270800CD
:100978002000D201D3010430C03E86008701160052
:100988000104031D080034272000911ED62C2300E3
:1009980019082000CF004F08D1005108103A031D54
:1009A800D62C282001302000D2070030D33D063055
:1009B800D0003030CF00CF0BDF2CD00BDF2C000065
:1009C8002000530821005102031DEE2C200052087C
:1009D800210050020318062D2000D201D301F92668
:1009E8002100400809262C30F1008730F20003303E
:1009F8002000CF004F08F3001030F4002730F50036
:100A0800F6018A2721005008CE3E2000CF00FF3093
:100A18002100513D2000D00053085006031D162D1B
:100A280052084F06031DBF2CF026BF2C2000911E34
:100A38000800230019082000DB005B08DD005D08C2
:100A4800103A031D292D28200800813020005D025E
:100A5800031C08005D08DB00DC01210041082000C0
:100A68005C06031D3B2D2100400820005B0603198E
:100A78000800803021004006410403190800C1180D
:100A8800080020005D086E0603199118ED019A010F
:100A980091105D08DB005B08EE000130DB005B08AD
:100AA800ED076D08DB00DC015C0821004702031D2F
:100AB800612D20005B08210046020318080023006E
:100AC8001D1220005D08D7232000EE01230019081D
:100AD8001D160800F50075087F39F100F20171084C
:100AE800F6007208F700F8011030780203180800C1
:100AF8007835A03E86008701403FF100413FF20073
:100B08007F307105F30000307205F4007408730437
:100B1800031D982D7835A03E86008701760881044C
:100B280041317708810408007835A03E86008701A6
:100B3800403FF100413FF20080307105F3003F3043
:100B48007205F40074087304031DBD2D7708F200C4
:100B58007608F1000730F135F20D890BAF2D7835A5
:100B6800A03E860087017108810441317208810422
:100B780008000130F1007108F807782D8B1372080E
:100B88002300920192077108910191071513151618
:100B9800151555309600AA309600951400000000EF
:100BA80023001511720892019207710891019107AB
:100BB8001513151215159516F601F60A760874021E
:100BC800031C062E730886008701403F9300413FAF
:100BD80094000230F5007508F307760874060319C7
:100BE800951255309600AA30960095140000000022
:100BF8000130F5007508230091070130F5007508EC
:100C0800F607E22D15118B1708002000A00023001D
:100C18001D122000A101A201003022026430031934
:100C280021020318352E8C18352E0630F900303085
:100C3800F800F80B1D2EF90B1D2E00006330200064
:100C480021062204031D292EB42601302000A10705
:100C58000030A23D00302202643003192102031C37
:100C6800172EDE262000200823009A009E1C3A2E0C
:100C7800F52623001D16190808002000A3002308E4
:100C88000F39FA007A08FC002308FA000430FA3613
:100C9800890B4B2E7A08FB007B08EF007C0809269D
:100CA8008530FA00FA0B562E20006F080926853089
:100CB800FA00FA0B5D2E20002308E8020800F20073
:100CC8002000DE01DF01911A762E0130DE070030A8
:100CD800DF3D75305F02303003195E02031C672E5A
:100CE8000130080023001908F10072088600870106
:100CF800710881000030080021001D0883390C3874
:100D08009D001D140730F300F30B882E00322100DC
:100D18009D149D188D2E1C08F4001B08F300063046
:100D2800F436F30C890B942E7308F1007408F20062
:100D380008003B00BB173B177208B601B6077108DD
:100D4800B501B5077208F4007108F300F436F30C26
:100D58007308B3007408B400B101B201BF170800EA
:100D68008530F1001E30F2009D260530F7000F3067
:100D7800F600F430F500F50BBF2EF60BBF2EF70B7F
:100D8800BF2EFC26B42EAE275C242100450844045F
:100D9800031DCF2EBC241A2544233427CF2E200030
:100DA800680841261130092685302000A400A40BCC
:100DB800DB2E080022009817200095010B158B16D2
:100DC8000800640080010131890BE62E0034FC26FE
:100DD800200018101110080021008C1220008C121D
:100DE80008008B1222009813080021008C160800B6
:060DF8003B003B13080064
:100E0000A0340F34DB341134D534143400341934A5
:100E100040341F34AA34293480343E3400347D34C5
:100E2000E3348A3440349C349234B2345534D03470
:100E30000034FA3400340034003400340034003418
:100E4000CC345E34B8344F3467342F34B9343B3447
:100E500034343534DC34273470349F34EA34EE349F
:100E6000EA34EE346234F0342000111C08006908C2
:100E70006A02031C422F6B080319402FEA01422F1C
:100E8000EB26080020006A08F500F601F535F60D9E
:100E90006008750784006108763D8500003FF10019
:100EA000013FF2009D2620006209F5006309F6006B
:100EB000F50A0319F60A75089600760897000130BE
:100EC000F5007508EA0711100800230015137208D1
:100ED00092019207710891019107F6017408760258
:100EE000031808001514000000007308860087012D
:100EF00023001308C03F1408C13F0230F5007508F5
:100F0000F307013091070030923D0130F50075087C
:100F1000F6076E2F72082000E101E1077108E00179
:100F2000E0077308F7007708E900EA017608F700A0
:100F30007708EB007508E301E3077408E201E207B4
:100F40006209F7006309F800F70A0319F80A77083D
:100F50009600780897001114181408007A302100C0
:100F6000990023008C0121000C110C1023000C1699
:100F70003030F100710821009E04673023009B008F
:100F80001E129D171F169E161D168B1721009512F7
:100F900030302000980403309C0478309C041C15E9
:100FA00008001030092685302000A400A40BD62F9D
:0C0FB0002000E801210040084126080054
:020000040001F9
:04000E00E4FFFFDE2E
:00000001FF
