:0400000000001528BF
:100008007E14803120007F08F00022001808203A72
:1000180098003230200095020B117008FF007E1006
:1000280009001628FC015C3084000030850012307D
:10003800E324A0308400003085003230E3247E10B1
:100048002000CF2C2000E6017C306E24003A031DEE
:1000580008006D306E24003A031D08007C08F03952
:10006800031D080020006D08F039031D08006D0805
:10007800A3000330A335FF3E031D3E2823357C042F
:10008800A4002408FC007C08A3002308E60721003C
:1000980040087C06031D08007C306E24003A031DCE
:1000A80008006D306E24003A031D08007C08F03902
:1000B800031D080020006D08F039031D08006D08B5
:1000C800A3000330A335FF3E031D662823357C04B7
:1000D800A4002408C5004508A3002308E6072E2B22
:1000E8007C306E24003A031D08006D306E24003AFF
:1000F800031D08007C08F039031D080020006D0866
:10010800F039031D08006D08A3000330A335FF3E36
:10011800031D8A2823357C04A4002408FC007C08DD
:10012800A3002308E6076608031D08007C306E2438
:10013800003A031D08007C08113A031D0800DB245F
:1001480002308C2420006A088C24E92408007C30C2
:100158006E24003A031D08006D306E24003A031D1A
:1001680008007C08F039031D080020006D08F039EC
:10017800031D08006D08A3000330A335FF3E031DCF
:10018800C12823357C04A4002408C6004608A3001F
:100198002308E6077C306E24003A031D08006D3002
:1001A8006E24003A031D08007C08F039031D08007E
:1001B80020006D08F039031D08006D08A300033006
:1001C800A335FF3E031DE42823357C04A40024083E
:1001D800C7004708A3002308E6077C306E24003ACE
:1001E800031D08006D306E24003A031D08007C08CA
:1001F800F039031D080020006D08F039031D0800C0
:100208006D08A3000330A335FF3E031D07292335DE
:100218007C04A4002408FC007C08A3002308E6074B
:100228006608031D08007C306E24003A031D080090
:100238007C08113A031D0800200046086A06031DC1
:100248000800DB2400308C24E92400302000470417
:100258002100C0000230C100F030F1000730F20088
:10026800C0302000A3002308F3000930A4002408AC
:10027800F400AC2608007C306E24003A031D080008
:100288006D306E24003A031D08007C08F039031D08
:10029800080020006D08F039031D08006D08A30050
:1002A8000330A335FF3E031D552923357C04A400E4
:1002B8002408CC004C08A3002308E6074C08A30038
:1002C8002308CA007C306E24003A031D08006D30F4
:1002D8006E24003A031D08007C08F039031D08004D
:1002E80020006D08F039031D08006D08A3000330D5
:1002F800A335FF3E031D7C2923357C04A400240874
:10030800CC004C08A3002308E6074C08A3002308E8
:10031800CB007C306E24003A031D08006D306E243B
:10032800003A031D08007C08F039031D080020006E
:100338006D08F039031D08006D08A3000330A335CC
:10034800FF3E031DA32923357C04A4002408FC00D8
:100358007C08A3002308E6076608031D08007C3014
:100368006E24003A031D08007C08113A031D08009A
:1003780020004B08F201F2074A08F101F107253085
:10038800A3002308F3001030A4002408F4008827F1
:10039800DB2405308C2425302000A3002308C80066
:1003A800C901203049020318EB2948088600870153
:1003B80001088C2401302000A3002308C80701305D
:1003C800A3002308C90720304902031CD929E924BE
:1003D80008007C306E24003A031D08006D306E243E
:1003E800003A031D08007C08F039031D08002000AE
:1003F8006D08F039031D08006D08A3000330A3350C
:10040800FF3E031D032A23357C04A4002408CC00E6
:100418004C08A3002308E6074C08A3002308CA00D9
:100428007C306E24003A031D08006D306E24003ABB
:10043800031D08007C08F039031D080020006D0822
:10044800F039031D08006D08A3000330A335FF3EF3
:10045800031D2A2A23357C04A4002408CC004C0858
:10046800A3002308E6074C08A3002308CB00253087
:10047800A3002308C800C9012030490203187A2ABA
:100488007C306E24003A031D08006D306E24003A5B
:10049800031D08007C08F039031D080020006D08C2
:1004A800F039031D08006D08A3000330A335FF3E93
:1004B800031D5A2A23357C04A4002408CC004C08C8
:1004C800A3002308E6074C08A30048088600870114
:1004D800230881000130A3002308C8070130A300C6
:1004E8002308C90720304902031C442A7C306E24A3
:1004F800003A031D08006D306E24003A031D080001
:100508007C08F039031D080020006D08F039031D30
:1005180008006D08A3000330A335FF3E031D902A91
:1005280023357C04A4002408FC007C08A3002308CD
:10053800E6076608031D08007C306E24003A031D98
:1005480008007C08113A031D080020004B08F2013E
:10055800F2074A08F101F1072530A3002308F30048
:100568001030A4002408F400AC26D82AF030F1009A
:100578000730F200C0302000A3002308F300093040
:10058800A4002408F4008827E62AE030F1000730A8
:10059800F200A0302000A3002308F3001030A400CC
:1005A8002408F4008827E62A20004B08073A031994
:1005B800DE2AE62A4A08E03A0319C92A103A03193A
:1005C800BA2AE62ADB2400308C24E92408007C308F
:1005D8006E24003A031D08006D306E24003A031D96
:1005E80008007C08F039031D080020006D08F03968
:1005F800031D08006D08A3000330A335FF3E031D4B
:10060800012B23357C04A4002408FC007C08A300EB
:100618002308E6076608031D08007C306E24003AAC
:10062800031D08007C08113A031D08004630F1003C
:100638008530F20006302000A3002308F300E830DC
:10064800F400FD30F500F601AD27DB2400308C24E2
:10065800E924080020004508013A03197428023AE1
:100668000319AB28073A03193F29023A0319ED2960
:10067800013A0319EB2A412B08000800BD2472082F
:100688002000A301A3077108A201A20723082100E3
:100698004D02031D532B2000220821004C02031891
:1006A800562B4D242000230821004B02031D602BEC
:1006B8002000220821004A020318C42B4D082000FC
:1006C8002302031D6B2B21004C0820002202031873
:1006D800C42B6A08031D752B1508A0002008EA0022
:1006E8006D2B21004F0820006502031D7F2B210080
:1006F8004E08200064020318862B0130E4070030FE
:10070800E53D08000230C03E86008701160001045E
:100718000319992B630821004302031D972B20001E
:10072800620821004202031CC22B200063086204F5
:10073800031DB92BF5242630F1008530F200103066
:100748002000A0002008F300B830F4000B30F500BA
:100758000230C03E860087011600010400300319EC
:100768000130A1002108F600AD2721004008F3263A
:1007780001302000E2070030E33D08008C16080035
:1007880021008C1643084204031DD02B2000630867
:1007980062040319D02BEF242000E401E501E201F3
:1007A800E30108002000D40054080426E030F100DA
:1007B8000730F200A0302000D2005208F3001030B9
:1007C800D3005308F400AC2601302100C4020030E5
:1007D800C53BF030F1000730F200C0302000D200F5
:1007E8005208F3000930D3005308F400AC26003057
:1007F800F1008530F20013302000D2005208F300D7
:100808006030F400EA30F500F601AD272100450814
:100818004404031D122CFA24582508002100490815
:100828002000D601D607210048082000D501D507A9
:1008380056085504031908000130D5020030D63B8C
:10084800FA242000D701323057020318362C2D27FE
:10085800D12701302000D2005208D7073230570282
:10086800031C2B2C003056021E30031955020318A6
:100878003F2C21008C162000D80132305802031872
:100888001C2C2D27D12701302000D2005208D80770
:10089800412CFA248530F1001E30F200A624F6011E
:1008A800C83076020318612CD1270130F50075088D
:1008B800F607C8307602031C582C21008C16F70165
:1008C800C830770203184D2CD1270130F500750880
:1008D800F707642CF2002000DC01DD01911A812C5D
:1008E8000130DC070030DD3D75305D023030031922
:1008F8005C02031C722C0130080023001908AA3A74
:10090800F100720886008701710881000030080034
:100918002000A20022080F39A0002008FC002208AD
:10092800A0000430A036890B962C2008A1002108CD
:10093800ED007C08F32620006D08F326200022082D
:10094800E60208003B00BB173B177208B601B60762
:100958007108B501B5077208F4007108F300F436A0
:10096800F30C7308B3007408B400B101B201BF17E7
:10097800080021009D149D18BF2C1C08F4001B08BA
:10098800F3000630F436F30C890BC62C7308F1001B
:100998007408F20008005E27582621004508440420
:1009A800031DD72C5825AF2542232D27D72C1030CF
:1009B800F3262000E601210040088C24080064008A
:1009C80080010131890BE42C0034200066088C2456
:1009D8001130F32608003B003B13200018101110BB
:1009E800080021008C1220008C16080021008C12AF
:0609F80020008C12080033
:100A00006234F0340034FA340034003400340034FA
:100A100000340034003400346F3477347A3459347D
:100A200000340034CC345E347A345934CC345E34FF
:100A30006B346A34003400346F34773470349F344C
:100A40000034003470349F34EA34EE34A0340F3470
:100A5000DB341134D53414340034193440341F34A9
:100A6000AA34293480343E3400347D34E3348A346B
:100A700040349C349234B2345534D0340034FA3497
:100A8000003400340034003400340034CC345E349C
:100A9000B8344F3467342F34B9343B3434343534BC
:100AA000DC3427346F34773470349F34EA34EE34D6
:100AB0002000D001D1010430C03E8600870116001D
:100AC0000104031D08002D272000911E732D230013
:100AD0001908AA3A2000CD004D08CF004F08103A5F
:100AE000031D732D262001302000D0070030D13D9A
:100AF000D1272000510821005102031D832D200021
:100B000050082100500203189B2D2000D001D10174
:100B100021008C164008F3265230F1008530F20097
:100B200003302000CD004D08F3001030F4002730D2
:100B3000F500F601AD2721005008CE3E2000CD0083
:100B4000FF302100513D2000CE0051084E06031D0C
:100B5000AB2D50084D06031D5B2DFA245B2D2000A4
:100B6000911E080023001908AA3A2000D90059084C
:100B7000DB005B08103A031DBF2D262008008130E2
:100B800020005B02031C08005B08D900DA01210089
:100B9000410820005A06031DD12D210040082000E5
:100BA000590603190800803021004006410403194A
:100BB0000800C118080020005B086C060319911892
:100BC000EB019A0191105B08D9005908EC00013043
:100BD000D9005908EB076B08D900DA015A0821003F
:100BE0004702031DF72D2000590821004602031873
:100BF000080023001D1220005B08D6232000EC0112
:100C0000230019081D160800F50075087F39F1004A
:100C1000F2017108F6007208F700F801103078024E
:100C2000031808007835A03E86008701403FF10098
:100C3000413FF2007F307105F30000307205F4008F
:100C400074087304031D2E2E7835A03E860087019C
:100C50007608810441317708810408007835A03E88
:100C600086008701403FF100413FF200803071056E
:100C7000F3003F307205F40074087304031D532E13
:100C80007708F2007608F1000730F135F20D890B94
:100C9000452E7835A03E86008701710881044131D8
:100CA0007208810408000130F1007108F8070E2E67
:100CB000F030F1000730F200C030F7007708F300A1
:100CC0000930F8007808F40088273F3021004106F9
:100CD000031D6C2EFF304006031D9E2E0130C40004
:100CE0000030C5008030C0000030C100C201C30127
:100CF000F430CA000130CB00A030CE000F30CF005E
:100D0000E830CC000330CD00F030F1000730F200C5
:100D1000C030F7007708F3000930F8007808F400D5
:100D2000AC26E030F1000730F200A030F700770881
:100D3000F3001030F8007808F400AC26E030F10041
:100D40000730F200A030F7007708F3001030F80009
:100D50007808F400882708008B137208230092019A
:100D60009207710891019107151315161515553045
:100D70009600AA309600951400000000230015117B
:100D800072089201920771089101910715131512CB
:100D900015159516F601F60A76087402031CF02E56
:100DA000730886008701403F9300413F9400023062
:100DB000F5007508F3077608740603199512553087
:100DC0009600AA3096009514000000000130F5004E
:100DD0007508230091070130F5007508F607CC2E41
:100DE00015118B170800F900AA30F8007808F906E9
:100DF000D12723001D12FA01FB0100307B02643071
:100E000003197A020318192F20008C18192FD127E3
:100E100063307A067B04031D0E2F4D240130FA0740
:100E20000030FB3D00307B02643003197A02031C62
:100E3000042F22009817200095010B158B167908B6
:100E400023009A009E1C222F8B122200981323004D
:100E50001D161908D127D12708002000111C0800F1
:100E600067086802031C3B2F69080319392FE80142
:100E70003B2FEF24080020006808F500F601F53547
:100E8000F60D5E08750784005F08763D8500003F1B
:100E9000F100013FF200A62420006009F50061097D
:100EA000F600F50A0319F60A750896007608970009
:100EB0000130F5007508E807111008007A302100AC
:100EC000990023008C0121000C110C1023000C163A
:100ED0003030F300730821009E04673023009B002C
:100EE0001E129D171F169E161D168B172100951298
:100EF00030302000980403309C0478309C041C158A
:100F000021001D0883390C389D001D14D1270800CD
:100F1000230015137208920192077108910191073D
:100F2000F60174087602031808001514000000008A
:100F300073088600870123001308C03F1408C13FCF
:100F40000230F5007508F307013091070030923D3B
:100F50000130F5007508F607912F72082000DF01B7
:100F6000DF077108DE01DE077308F7007708E70086
:100F7000E8017608F7007708E9007508E101E10764
:100F80007408E001E0076009F7006109F800F70A5A
:100F90000319F80A770896007808970011141814B6
:100FA0000800F101F201013072021D3003197102D3
:100FB0000318080000000130F1070030F23DD32F84
:020000040001F9
:04000E00E4FFFFDE2E
:00000001FF
